{
  "address": "0xeEfaf5F5b68fd67A6Cc0b3f57e267cE18f011874",
  "abi": [
    {
      "inputs": [
        {
          "internalType": "address",
          "name": "_devAddr",
          "type": "address"
        }
      ],
      "stateMutability": "nonpayable",
      "type": "constructor"
    },
    {
      "anonymous": false,
      "inputs": [
        {
          "indexed": true,
          "internalType": "address",
          "name": "_address",
          "type": "address"
        }
      ],
      "name": "LuckboxCreated",
      "type": "event"
    },
    {
      "anonymous": false,
      "inputs": [
        {
          "indexed": true,
          "internalType": "address",
          "name": "previousOwner",
          "type": "address"
        },
        {
          "indexed": true,
          "internalType": "address",
          "name": "newOwner",
          "type": "address"
        }
      ],
      "name": "OwnershipTransferred",
      "type": "event"
    },
    {
      "anonymous": false,
      "inputs": [
        {
          "indexed": false,
          "internalType": "address",
          "name": "user",
          "type": "address"
        },
        {
          "indexed": false,
          "internalType": "uint256",
          "name": "timestamp",
          "type": "uint256"
        }
      ],
      "name": "RequestedNonce",
      "type": "event"
    },
    {
      "anonymous": false,
      "inputs": [
        {
          "indexed": false,
          "internalType": "address",
          "name": "_devAddr",
          "type": "address"
        }
      ],
      "name": "SetDevAddr",
      "type": "event"
    },
    {
      "anonymous": false,
      "inputs": [
        {
          "indexed": false,
          "internalType": "uint256",
          "name": "_fee",
          "type": "uint256"
        }
      ],
      "name": "SetFee",
      "type": "event"
    },
    {
      "inputs": [],
      "name": "COOLDOWN",
      "outputs": [
        {
          "internalType": "uint256",
          "name": "",
          "type": "uint256"
        }
      ],
      "stateMutability": "view",
      "type": "function"
    },
    {
      "inputs": [],
      "name": "FEE",
      "outputs": [
        {
          "internalType": "uint256",
          "name": "",
          "type": "uint256"
        }
      ],
      "stateMutability": "view",
      "type": "function"
    },
    {
      "inputs": [],
      "name": "KEY_HASH",
      "outputs": [
        {
          "internalType": "bytes32",
          "name": "",
          "type": "bytes32"
        }
      ],
      "stateMutability": "view",
      "type": "function"
    },
    {
      "inputs": [],
      "name": "LINK_TOKEN",
      "outputs": [
        {
          "internalType": "address",
          "name": "",
          "type": "address"
        }
      ],
      "stateMutability": "view",
      "type": "function"
    },
    {
      "inputs": [],
      "name": "MAX_FEE",
      "outputs": [
        {
          "internalType": "uint256",
          "name": "",
          "type": "uint256"
        }
      ],
      "stateMutability": "view",
      "type": "function"
    },
    {
      "inputs": [],
      "name": "VRF_COORDINATOR",
      "outputs": [
        {
          "internalType": "address",
          "name": "",
          "type": "address"
        }
      ],
      "stateMutability": "view",
      "type": "function"
    },
    {
      "inputs": [
        {
          "internalType": "uint256",
          "name": "",
          "type": "uint256"
        }
      ],
      "name": "boxes",
      "outputs": [
        {
          "internalType": "string",
          "name": "name",
          "type": "string"
        },
        {
          "internalType": "string",
          "name": "symbol",
          "type": "string"
        },
        {
          "internalType": "address",
          "name": "owner",
          "type": "address"
        },
        {
          "internalType": "address",
          "name": "contractAddress",
          "type": "address"
        },
        {
          "internalType": "bool",
          "name": "banned",
          "type": "bool"
        }
      ],
      "stateMutability": "view",
      "type": "function"
    },
    {
      "inputs": [
        {
          "internalType": "string",
          "name": "name",
          "type": "string"
        },
        {
          "internalType": "string",
          "name": "symbol",
          "type": "string"
        },
        {
          "internalType": "uint256",
          "name": "ticketPrice",
          "type": "uint256"
        }
      ],
      "name": "createLuckbox",
      "outputs": [],
      "stateMutability": "nonpayable",
      "type": "function"
    },
    {
      "inputs": [],
      "name": "devAddr",
      "outputs": [
        {
          "internalType": "address",
          "name": "",
          "type": "address"
        }
      ],
      "stateMutability": "view",
      "type": "function"
    },
    {
      "inputs": [],
      "name": "feePercent",
      "outputs": [
        {
          "internalType": "uint256",
          "name": "",
          "type": "uint256"
        }
      ],
      "stateMutability": "view",
      "type": "function"
    },
    {
      "inputs": [
        {
          "internalType": "uint256",
          "name": "_nonce",
          "type": "uint256"
        }
      ],
      "name": "forceNonceUpdate",
      "outputs": [],
      "stateMutability": "nonpayable",
      "type": "function"
    },
    {
      "inputs": [
        {
          "internalType": "uint256",
          "name": "_id",
          "type": "uint256"
        }
      ],
      "name": "getBoxContractAddress",
      "outputs": [
        {
          "internalType": "address",
          "name": "",
          "type": "address"
        }
      ],
      "stateMutability": "view",
      "type": "function"
    },
    {
      "inputs": [
        {
          "internalType": "uint256",
          "name": "_id",
          "type": "uint256"
        }
      ],
      "name": "getBoxName",
      "outputs": [
        {
          "internalType": "string",
          "name": "",
          "type": "string"
        }
      ],
      "stateMutability": "view",
      "type": "function"
    },
    {
      "inputs": [
        {
          "internalType": "uint256",
          "name": "_id",
          "type": "uint256"
        }
      ],
      "name": "getBoxOwner",
      "outputs": [
        {
          "internalType": "address",
          "name": "",
          "type": "address"
        }
      ],
      "stateMutability": "view",
      "type": "function"
    },
    {
      "inputs": [
        {
          "internalType": "uint256",
          "name": "_id",
          "type": "uint256"
        }
      ],
      "name": "getBoxSymbol",
      "outputs": [
        {
          "internalType": "string",
          "name": "",
          "type": "string"
        }
      ],
      "stateMutability": "view",
      "type": "function"
    },
    {
      "inputs": [
        {
          "internalType": "uint256",
          "name": "_id",
          "type": "uint256"
        }
      ],
      "name": "isBanned",
      "outputs": [
        {
          "internalType": "bool",
          "name": "",
          "type": "bool"
        }
      ],
      "stateMutability": "view",
      "type": "function"
    },
    {
      "inputs": [],
      "name": "owner",
      "outputs": [
        {
          "internalType": "address",
          "name": "",
          "type": "address"
        }
      ],
      "stateMutability": "view",
      "type": "function"
    },
    {
      "inputs": [],
      "name": "randomNonce",
      "outputs": [
        {
          "internalType": "uint256",
          "name": "",
          "type": "uint256"
        }
      ],
      "stateMutability": "view",
      "type": "function"
    },
    {
      "inputs": [
        {
          "internalType": "bytes32",
          "name": "requestId",
          "type": "bytes32"
        },
        {
          "internalType": "uint256",
          "name": "randomness",
          "type": "uint256"
        }
      ],
      "name": "rawFulfillRandomness",
      "outputs": [],
      "stateMutability": "nonpayable",
      "type": "function"
    },
    {
      "inputs": [],
      "name": "renounceOwnership",
      "outputs": [],
      "stateMutability": "nonpayable",
      "type": "function"
    },
    {
      "inputs": [],
      "name": "requestNonce",
      "outputs": [],
      "stateMutability": "nonpayable",
      "type": "function"
    },
    {
      "inputs": [
        {
          "internalType": "uint256",
          "name": "_id",
          "type": "uint256"
        },
        {
          "internalType": "bool",
          "name": "_isBan",
          "type": "bool"
        }
      ],
      "name": "setBan",
      "outputs": [],
      "stateMutability": "nonpayable",
      "type": "function"
    },
    {
      "inputs": [
        {
          "internalType": "address",
          "name": "_devAddr",
          "type": "address"
        }
      ],
      "name": "setDevAddr",
      "outputs": [],
      "stateMutability": "nonpayable",
      "type": "function"
    },
    {
      "inputs": [
        {
          "internalType": "uint256",
          "name": "_feePercent",
          "type": "uint256"
        }
      ],
      "name": "setFee",
      "outputs": [],
      "stateMutability": "nonpayable",
      "type": "function"
    },
    {
      "inputs": [],
      "name": "timestamp",
      "outputs": [
        {
          "internalType": "uint256",
          "name": "",
          "type": "uint256"
        }
      ],
      "stateMutability": "view",
      "type": "function"
    },
    {
      "inputs": [],
      "name": "totalBoxes",
      "outputs": [
        {
          "internalType": "uint256",
          "name": "",
          "type": "uint256"
        }
      ],
      "stateMutability": "view",
      "type": "function"
    },
    {
      "inputs": [],
      "name": "totalLink",
      "outputs": [
        {
          "internalType": "uint256",
          "name": "",
          "type": "uint256"
        }
      ],
      "stateMutability": "view",
      "type": "function"
    },
    {
      "inputs": [
        {
          "internalType": "address",
          "name": "newOwner",
          "type": "address"
        }
      ],
      "name": "transferOwnership",
      "outputs": [],
      "stateMutability": "nonpayable",
      "type": "function"
    },
    {
      "inputs": [
        {
          "internalType": "uint256",
          "name": "_amount",
          "type": "uint256"
        }
      ],
      "name": "withdrawLink",
      "outputs": [],
      "stateMutability": "nonpayable",
      "type": "function"
    }
  ],
  "transactionHash": "0x1c7279549ae1591556db5b9a94964ef4b7f51456eb9360bc0727565dd0f76e45",
  "args": [
    "0x480cFCFD4059aa2e22d5fEFC42BaD2b5EfE96ECf"
  ],
  "solcInputHash": "2e6870ab8b8d3dd309a45768160f5a3c",
  "bytecode": "0x60c060405261012c600855603c60095534801561001b57600080fd5b5060405162004d4538038062004d458339818101604052602081101561004057600080fd5b50517f3d2341adb2d31f1c5530cdc622016af293177ae000000000000000000000000060a0527fb0897686c545045afc77cf20ec7a532e3120e0f1000000000000000000000000608052600180556000610098610158565b600280546001600160a01b0319166001600160a01b038316908117909155604051919250906000907f8be0079c531659141344cd1fd0a4f28419497f9722a3daafe3b4186f6b6457e0908290a3506001600160a01b038116610133576040805162461bcd60e51b815260206004820152600f60248201526e41646472657373206973207a65726f60881b604482015290519081900360640190fd5b600780546001600160a01b0319166001600160a01b039290921691909117905561015c565b3390565b60805160601c60a05160601c614bba6200018b6000398061158a52806118855250806118565250614bba6000f3fe60806040523480156200001157600080fd5b5060043610620001fc5760003560e01c80637c1a0302116200011d578063b80777ea11620000b1578063da09c72c116200007b578063da09c72c146200068e578063e217852c1462000698578063eedac3a614620006b8578063f2fde38b14620006c257620001fc565b8063b80777ea146200063c578063bc063e1a1462000646578063c57981b51462000650578063c57a9c56146200065a57620001fc565b8063910ec7bf11620000f3578063910ec7bf14620005cc57806394985ddd14620005ec5780639c9cf6681462000612578063a2724a4d146200063257620001fc565b80637c1a030214620005ae5780637fd6f15c14620005b85780638da5cb5b14620005c257620001fc565b806357e78adc11620001955780636ebb64a2116200016b5780636ebb64a2146200053b578063715018a61462000564578063773e5e83146200056e5780637a8042bd146200058e57620001fc565b806357e78adc14620004e95780636056e79214620004f357806369fe0e2d146200051b57620001fc565b806339988a5511620001d757806339988a5514620003105780634457222e146200031a5780634ed3faf214620003b257806351dc86a514620004df57620001fc565b806305f6a9241462000201578063167490ab14620002275780633679dc4614620002f4575b600080fd5b6200020b620006eb565b604080516001600160a01b039092168252519081900360200190f35b620002f2600480360360608110156200023f57600080fd5b8101906020810181356401000000008111156200025b57600080fd5b8201836020820111156200026e57600080fd5b803590602001918460018302840111640100000000831117156200029157600080fd5b919390929091602081019035640100000000811115620002b057600080fd5b820183602082011115620002c357600080fd5b80359060200191846001830284011164010000000083111715620002e657600080fd5b91935091503562000703565b005b620002fe620009ec565b60408051918252519081900360200190f35b620002fe62000a75565b6200033a600480360360208110156200033257600080fd5b503562000a7b565b6040805160208082528351818301528351919283929083019185019080838360005b83811015620003765781810151838201526020016200035c565b50505050905090810190601f168015620003a45780820380516001836020036101000a031916815260200191505b509250505060405180910390f35b620003d260048036036020811015620003ca57600080fd5b503562000b40565b604051808060200180602001866001600160a01b03168152602001856001600160a01b031681526020018415158152602001838103835288818151815260200191508051906020019080838360005b838110156200043b57818101518382015260200162000421565b50505050905090810190601f168015620004695780820380516001836020036101000a031916815260200191505b50838103825287518152875160209182019189019080838360005b838110156200049e57818101518382015260200162000484565b50505050905090810190601f168015620004cc5780820380516001836020036101000a031916815260200191505b5097505050505050505060405180910390f35b620002fe62000cbc565b620002fe62000ce0565b620002f2600480360360408110156200050b57600080fd5b5080359060200135151562000ce6565b620002f2600480360360208110156200053357600080fd5b503562000de2565b620002f2600480360360208110156200055357600080fd5b50356001600160a01b031662000f24565b620002f262001084565b620002f2600480360360208110156200058657600080fd5b503562001136565b620002f260048036036020811015620005a657600080fd5b5035620011ef565b620002f2620012cc565b620002fe620014ef565b6200020b620014f5565b6200033a60048036036020811015620005e457600080fd5b503562001504565b620002f2600480360360408110156200060457600080fd5b50803590602001356200157f565b6200020b600480360360208110156200062a57600080fd5b50356200160d565b620002fe62001640565b620002fe62001646565b620002fe6200164c565b620002fe62001652565b6200067a600480360360208110156200067257600080fd5b50356200165c565b604080519115158252519081900360200190f35b6200020b62001690565b6200020b60048036036020811015620006b057600080fd5b50356200169f565b6200020b620016d2565b620002f260048036036020811015620006da57600080fd5b50356001600160a01b0316620016ea565b733d2341adb2d31f1c5530cdc622016af293177ae081565b600260015414156200074b576040805162461bcd60e51b815260206004820152601f602482015260008051602062004af5833981519152604482015290519081900360640190fd5b60026001819055506000858585858530604051620007699062001d83565b604081018390526001600160a01b038216606082015260808082528101869052806020810160a08201898980828437600083820152601f01601f1916909101848103835287815260200190508787808284376000838201819052604051601f909201601f19169093018190039b50995090975050505050505050f080158015620007f7573d6000803e3d6000fd5b509050806001600160a01b031663f2fde38b336040518263ffffffff1660e01b815260040180826001600160a01b03168152602001915050600060405180830381600087803b1580156200084a57600080fd5b505af11580156200085f573d6000803e3d6000fd5b50506040805160c06020601f8b01819004028201810190925260a081018981528594506003935090918291908b908b9081908501838280828437600092019190915250505090825250604080516020601f8a018190048102820181019092528881529181019190899089908190840183828082843760009201829052509385525050336020808501919091526001600160a01b03871660408501526060909301829052508354600181018555938152819020825180519394600402909101926200092d928492019062001d91565b50602082810151805162000948926001850192019062001d91565b506040828101516002830180546001600160a01b039283166001600160a01b0319918216179091556060850151600390940180546080909601511515600160a01b0260ff60a01b199584169690921695909517939093169290921790925560048054600101905542600a559051908216907f49592d1ca9e0713f1fd5561b294932ae67522e876a2d68050852a08eeb0d2dae90600090a25050600180555050505050565b604080516370a0823160e01b8152306004820152905160009173b0897686c545045afc77cf20ec7a532e3120e0f1916370a0823191602480820192602092909190829003018186803b15801562000a4257600080fd5b505afa15801562000a57573d6000803e3d6000fd5b505050506040513d602081101562000a6e57600080fd5b5051905090565b60055481565b60606003828154811062000a8b57fe5b90600052602060002090600402016001018054600181600116156101000203166002900480601f01602080910402602001604051908101604052809291908181526020018280546001816001161561010002031660029004801562000b345780601f1062000b085761010080835404028352916020019162000b34565b820191906000526020600020905b81548152906001019060200180831162000b1657829003601f168201915b50505050509050919050565b6003818154811062000b4e57fe5b60009182526020918290206004919091020180546040805160026001841615610100026000190190931692909204601f81018590048502830185019091528082529193509183919083018282801562000beb5780601f1062000bbf5761010080835404028352916020019162000beb565b820191906000526020600020905b81548152906001019060200180831162000bcd57829003601f168201915b505050505090806001018054600181600116156101000203166002900480601f01602080910402602001604051908101604052809291908181526020018280546001816001161561010002031660029004801562000c8d5780601f1062000c615761010080835404028352916020019162000c8d565b820191906000526020600020905b81548152906001019060200180831162000c6f57829003601f168201915b50505050600283015460039093015491926001600160a01b03908116929081169150600160a01b900460ff1685565b7ff86195cf7690c55907b2b611ebb7343a6f649bff128701cc542f0569e2c549da81565b60045481565b62000cf0620017f5565b6001600160a01b031662000d03620014f5565b6001600160a01b03161462000d4e576040805162461bcd60e51b8152602060048201819052602482015260008051602062004b3b833981519152604482015290519081900360640190fd5b6002600154141562000d96576040805162461bcd60e51b815260206004820152601f602482015260008051602062004af5833981519152604482015290519081900360640190fd5b6002600181905550806003838154811062000dad57fe5b600091825260209091206003600490920201018054911515600160a01b0260ff60a01b19909216919091179055505060018055565b62000dec620017f5565b6001600160a01b031662000dff620014f5565b6001600160a01b03161462000e4a576040805162461bcd60e51b8152602060048201819052602482015260008051602062004b3b833981519152604482015290519081900360640190fd5b6002600154141562000e92576040805162461bcd60e51b815260206004820152601f602482015260008051602062004af5833981519152604482015290519081900360640190fd5b60026001556103e881111562000ee6576040805162461bcd60e51b815260206004820152601460248201527342656c6f77204d41585f46454520506c6561736560601b604482015290519081900360640190fd5b60088190556040805182815290517e172ddfc5ae88d08b3de01a5a187667c37a5a53989e8c175055cb6c993792a79181900360200190a15060018055565b62000f2e620017f5565b6001600160a01b031662000f41620014f5565b6001600160a01b03161462000f8c576040805162461bcd60e51b8152602060048201819052602482015260008051602062004b3b833981519152604482015290519081900360640190fd5b6002600154141562000fd4576040805162461bcd60e51b815260206004820152601f602482015260008051602062004af5833981519152604482015290519081900360640190fd5b60026001556001600160a01b03811662001026576040805162461bcd60e51b815260206004820152600e60248201526d41646472657373207a65726f202160901b604482015290519081900360640190fd5b600780546001600160a01b0319166001600160a01b03838116919091179182905560408051929091168252517f45c73fc162405abe4471c4228f0797176ac32cb9f7be4a25a67cbd1dda6d007e916020908290030190a15060018055565b6200108e620017f5565b6001600160a01b0316620010a1620014f5565b6001600160a01b031614620010ec576040805162461bcd60e51b8152602060048201819052602482015260008051602062004b3b833981519152604482015290519081900360640190fd5b6002546040516000916001600160a01b0316907f8be0079c531659141344cd1fd0a4f28419497f9722a3daafe3b4186f6b6457e0908390a3600280546001600160a01b0319169055565b62001140620017f5565b6001600160a01b031662001153620014f5565b6001600160a01b0316146200119e576040805162461bcd60e51b8152602060048201819052602482015260008051602062004b3b833981519152604482015290519081900360640190fd5b60026001541415620011e6576040805162461bcd60e51b815260206004820152601f602482015260008051602062004af5833981519152604482015290519081900360640190fd5b60055560018055565b620011f9620017f5565b6001600160a01b03166200120c620014f5565b6001600160a01b03161462001257576040805162461bcd60e51b8152602060048201819052602482015260008051602062004b3b833981519152604482015290519081900360640190fd5b600260015414156200129f576040805162461bcd60e51b815260206004820152601f602482015260008051602062004af5833981519152604482015290519081900360640190fd5b6002600155620012c573b0897686c545045afc77cf20ec7a532e3120e0f13383620017f9565b5060018055565b6002600154141562001314576040805162461bcd60e51b815260206004820152601f602482015260008051602062004af5833981519152604482015290519081900360640190fd5b6002600155604080516370a0823160e01b81523060048201529051655af3107a40009173b0897686c545045afc77cf20ec7a532e3120e0f1916370a0823191602480820192602092909190829003018186803b1580156200137457600080fd5b505afa15801562001389573d6000803e3d6000fd5b505050506040513d6020811015620013a057600080fd5b50511015620013f6576040805162461bcd60e51b815260206004820181905260248201527f496e73756666696369656e74204c494e4b20746f2070726f6365656420565246604482015290519081900360640190fd5b600954600a540142101562001452576040805162461bcd60e51b815260206004820152601860248201527f5374696c6c20696e20636f6f6c646f776e20706572696f640000000000000000604482015290519081900360640190fd5b6000620014867ff86195cf7690c55907b2b611ebb7343a6f649bff128701cc542f0569e2c549da655af3107a400062001852565b60008181526006602090815260409182902080546001600160a01b031916339081179091558251908152429181019190915281519293507ff5c46d4c0a0c0f013ccbcd52afc719e436d828ea2448a2b7261f7b1c4455a694929081900390910190a15060018055565b60085481565b6002546001600160a01b031690565b6060600382815481106200151457fe5b6000918252602091829020600490910201805460408051601f600260001961010060018716150201909416939093049283018590048502810185019091528181529283018282801562000b345780601f1062000b085761010080835404028352916020019162000b34565b336001600160a01b037f00000000000000000000000000000000000000000000000000000000000000001614620015fd576040805162461bcd60e51b815260206004820152601f60248201527f4f6e6c7920565246436f6f7264696e61746f722063616e2066756c66696c6c00604482015290519081900360640190fd5b62001609828262001a11565b5050565b6000600382815481106200161d57fe5b60009182526020909120600490910201600301546001600160a01b031692915050565b60095481565b600a5481565b6103e881565b655af3107a400081565b6000600382815481106200166c57fe5b6000918252602090912060049091020160030154600160a01b900460ff1692915050565b6007546001600160a01b031681565b600060038281548110620016af57fe5b60009182526020909120600490910201600201546001600160a01b031692915050565b73b0897686c545045afc77cf20ec7a532e3120e0f181565b620016f4620017f5565b6001600160a01b031662001707620014f5565b6001600160a01b03161462001752576040805162461bcd60e51b8152602060048201819052602482015260008051602062004b3b833981519152604482015290519081900360640190fd5b6001600160a01b038116620017995760405162461bcd60e51b815260040180806020018281038252602681526020018062004b156026913960400191505060405180910390fd5b6002546040516001600160a01b038084169216907f8be0079c531659141344cd1fd0a4f28419497f9722a3daafe3b4186f6b6457e090600090a3600280546001600160a01b0319166001600160a01b0392909216919091179055565b3390565b604080516001600160a01b038416602482015260448082018490528251808303909101815260649091019091526020810180516001600160e01b031663a9059cbb60e01b1790526200184d90849062001a17565b505050565b60007f00000000000000000000000000000000000000000000000000000000000000006001600160a01b0316634000aea07f00000000000000000000000000000000000000000000000000000000000000008486600060405160200180838152602001828152602001925050506040516020818303038152906040526040518463ffffffff1660e01b815260040180846001600160a01b0316815260200183815260200180602001828103825283818151815260200191508051906020019080838360005b838110156200193157818101518382015260200162001917565b50505050905090810190601f1680156200195f5780820380516001836020036101000a031916815260200191505b50945050505050602060405180830381600087803b1580156200198157600080fd5b505af115801562001996573d6000803e3d6000fd5b505050506040513d6020811015620019ad57600080fd5b5050600083815260208190526040812054620019cf9085908390309062001ace565b600085815260208190526040902054909150620019ee90600162001b15565b60008581526020819052604090205562001a09848262001b77565b949350505050565b60055550565b606062001a6e826040518060400160405280602081526020017f5361666545524332303a206c6f772d6c6576656c2063616c6c206661696c6564815250856001600160a01b031662001ba39092919063ffffffff16565b8051909150156200184d5780806020019051602081101562001a8f57600080fd5b50516200184d5760405162461bcd60e51b815260040180806020018281038252602a81526020018062004b5b602a913960400191505060405180910390fd5b60408051602080820196909652808201949094526001600160a01b039290921660608401526080808401919091528151808403909101815260a09092019052805191012090565b60008282018381101562001b70576040805162461bcd60e51b815260206004820152601b60248201527f536166654d6174683a206164646974696f6e206f766572666c6f770000000000604482015290519081900360640190fd5b9392505050565b604080516020808201949094528082019290925280518083038201815260609092019052805191012090565b606062001a0984846000858562001bba8562001cd3565b62001c0c576040805162461bcd60e51b815260206004820152601d60248201527f416464726573733a2063616c6c20746f206e6f6e2d636f6e7472616374000000604482015290519081900360640190fd5b60006060866001600160a01b031685876040518082805190602001908083835b6020831062001c4d5780518252601f19909201916020918201910162001c2c565b6001836020036101000a03801982511681845116808217855250505050505090500191505060006040518083038185875af1925050503d806000811462001cb1576040519150601f19603f3d011682016040523d82523d6000602084013e62001cb6565b606091505b509150915062001cc882828662001cd9565b979650505050505050565b3b151590565b6060831562001cea57508162001b70565b82511562001cfb5782518084602001fd5b8160405162461bcd60e51b81526004018080602001828103825283818151815260200191508051906020019080838360005b8381101562001d4757818101518382015260200162001d2d565b50505050905090810190601f16801562001d755780820380516001836020036101000a031916815260200191505b509250505060405180910390fd5b612cc78062001e2e83390190565b828054600181600116156101000203166002900490600052602060002090601f016020900481019282601f1062001dd457805160ff191683800117855562001e04565b8280016001018555821562001e04579182015b8281111562001e0457825182559160200191906001019062001de7565b5062001e1292915062001e16565b5090565b5b8082111562001e12576000815560010162001e1756fe60806040523480156200001157600080fd5b5060405162002cc738038062002cc7833981810160405260808110156200003757600080fd5b81019080805160405193929190846401000000008211156200005857600080fd5b9083019060208201858111156200006e57600080fd5b82516401000000008111828201881017156200008957600080fd5b82525081516020918201929091019080838360005b83811015620000b85781810151838201526020016200009e565b50505050905090810190601f168015620000e65780820380516001836020036101000a031916815260200191505b50604052602001805160405193929190846401000000008211156200010a57600080fd5b9083019060208201858111156200012057600080fd5b82516401000000008111828201881017156200013b57600080fd5b82525081516020918201929091019080838360005b838110156200016a57818101518382015260200162000150565b50505050905090810190601f168015620001985780820380516001836020036101000a031916815260200191505b506040908152602082015191015190925090506000620001b7620002e4565b600080546001600160a01b0319166001600160a01b0383169081178255604051929350917f8be0079c531659141344cd1fd0a4f28419497f9722a3daafe3b4186f6b6457e0908290a35060018055620002176301ffc9a760e01b620002e8565b62000229630271189760e51b620002e8565b816200027c576040805162461bcd60e51b815260206004820152601460248201527f496e76616c6964207469636b6574207072696365000000000000000000000000604482015290519081900360640190fd5b8351620002919060039060208701906200036d565b508251620002a79060049060208601906200036d565b506005829055600c80546001600160a01b0319166001600160a01b038316179055620002da630a85bd0160e11b620002e8565b5050505062000409565b3390565b6001600160e01b0319808216141562000348576040805162461bcd60e51b815260206004820152601c60248201527f4552433136353a20696e76616c696420696e7465726661636520696400000000604482015290519081900360640190fd5b6001600160e01b0319166000908152600260205260409020805460ff19166001179055565b828054600181600116156101000203166002900490600052602060002090601f016020900481019282601f10620003b057805160ff1916838001178555620003e0565b82800160010185558215620003e0579182015b82811115620003e0578251825591602001919060010190620003c3565b50620003ee929150620003f2565b5090565b5b80821115620003ee5760008155600101620003f3565b6128ae80620004196000396000f3fe6080604052600436106101b75760003560e01c8063715018a6116100ec578063bc197c811161008a578063f23a6e6111610064578063f23a6e61146108af578063f2fde38b14610985578063f4a96d22146109b8578063fdeba77c146109e3576101b7565b8063bc197c811461067c578063c45a01551461084a578063c59ad4551461085f576101b7565b80638da5cb5b116100c65780638da5cb5b146105da57806395d89b411461060b578063aa4fdefb14610620578063ac4cf15614610635576101b7565b8063715018a61461057b57806389fe7733146105905780638cecc9c4146105bd576101b7565b8063264d84ca116101595780633c594059116101335780633c59405914610472578063519af30e146104d9578063547c3648146104ee5780635992385914610503576101b7565b8063264d84ca146103ec578063295ca7fb146104485780633c3c9c231461045d576101b7565b80631209b1f6116101955780631209b1f614610298578063150b7a02146102bf57806315981650146103ad57806323659862146103d7576101b7565b806301ffc9a7146101bc57806306fdde03146102045780630eecae211461028e575b600080fd5b3480156101c857600080fd5b506101f0600480360360208110156101df57600080fd5b50356001600160e01b031916610a0d565b604080519115158252519081900360200190f35b34801561021057600080fd5b50610219610a2c565b6040805160208082528351818301528351919283929083019185019080838360005b8381101561025357818101518382015260200161023b565b50505050905090810190601f1680156102805780820380516001836020036101000a031916815260200191505b509250505060405180910390f35b610296610aba565b005b3480156102a457600080fd5b506102ad610da4565b60408051918252519081900360200190f35b3480156102cb57600080fd5b50610390600480360360808110156102e257600080fd5b6001600160a01b03823581169260208101359091169160408201359190810190608081016060820135600160201b81111561031c57600080fd5b82018360208201111561032e57600080fd5b803590602001918460018302840111600160201b8311171561034f57600080fd5b91908080601f016020809104026020016040519081016040528093929190818152602001838380828437600092019190915250929550610daa945050505050565b604080516001600160e01b03199092168252519081900360200190f35b3480156103b957600080fd5b50610296600480360360208110156103d057600080fd5b5035610dba565b3480156103e357600080fd5b506102ad610eef565b3480156103f857600080fd5b506104166004803603602081101561040f57600080fd5b5035610f50565b604080516001600160a01b03909516855260208501939093528383019190915215156060830152519081900360800190f35b34801561045457600080fd5b506102ad610f84565b34801561046957600080fd5b506102ad610f8a565b34801561047e57600080fd5b5061049c6004803603602081101561049557600080fd5b5035610f8e565b604080519687526001600160a01b0390951660208701529215158585015260ff9091166060850152608084015260a0830152519081900360c00190f35b3480156104e557600080fd5b50610296610fd4565b3480156104fa57600080fd5b506102ad611093565b34801561050f57600080fd5b506105306004803603602081101561052657600080fd5b503560ff16611099565b604080516001600160a01b03988916815260208101979097529415158686015292151560608601526080850191909152151560a084015290921660c082015290519081900360e00190f35b34801561058757600080fd5b506102966110e8565b34801561059c57600080fd5b50610296600480360360208110156105b357600080fd5b503560ff16611194565b610296600480360360208110156105d357600080fd5b5035611517565b3480156105e657600080fd5b506105ef6116e5565b604080516001600160a01b039092168252519081900360200190f35b34801561061757600080fd5b506102196116f4565b34801561062c57600080fd5b506102ad61174f565b34801561064157600080fd5b506102966004803603608081101561065857600080fd5b506001600160a01b0381351690602081013590604081013590606001351515611755565b34801561068857600080fd5b50610390600480360360a081101561069f57600080fd5b6001600160a01b038235811692602081013590911691810190606081016040820135600160201b8111156106d257600080fd5b8201836020820111156106e457600080fd5b803590602001918460208302840111600160201b8311171561070557600080fd5b9190808060200260200160405190810160405280939291908181526020018383602002808284376000920191909152509295949360208101935035915050600160201b81111561075457600080fd5b82018360208201111561076657600080fd5b803590602001918460208302840111600160201b8311171561078757600080fd5b9190808060200260200160405190810160405280939291908181526020018383602002808284376000920191909152509295949360208101935035915050600160201b8111156107d657600080fd5b8201836020820111156107e857600080fd5b803590602001918460018302840111600160201b8311171561080957600080fd5b91908080601f0160208091040260200160405190810160405280939291908181526020018383808284376000920191909152509295506118f4945050505050565b34801561085657600080fd5b506105ef611905565b34801561086b57600080fd5b50610296600480360360a081101561088257600080fd5b5060ff813516906020810135906001600160a01b0360408201351690606081013590608001351515611914565b3480156108bb57600080fd5b50610390600480360360a08110156108d257600080fd5b6001600160a01b03823581169260208101359091169160408201359160608101359181019060a081016080820135600160201b81111561091157600080fd5b82018360208201111561092357600080fd5b803590602001918460018302840111600160201b8311171561094457600080fd5b91908080601f016020809104026020016040519081016040528093929190818152602001838380828437600092019190915250929550611c82945050505050565b34801561099157600080fd5b50610296600480360360208110156109a857600080fd5b50356001600160a01b0316611c93565b3480156109c457600080fd5b506109cd611d95565b6040805160ff9092168252519081900360200190f35b3480156109ef57600080fd5b506102ad60048036036020811015610a0657600080fd5b5035611d9a565b6001600160e01b03191660009081526002602052604090205460ff1690565b6003805460408051602060026001851615610100026000190190941693909304601f81018490048402820184019092528181529291830182828015610ab25780601f10610a8757610100808354040283529160200191610ab2565b820191906000526020600020905b815481529060010190602001808311610a9557829003601f168201915b505050505081565b60026001541415610b00576040805162461bcd60e51b815260206004820152601f6024820152600080516020612768833981519152604482015290519081900360640190fd5b60026001556005543414610b55576040805162461bcd60e51b815260206004820152601760248201527614185e5b595b9d081a5cc81b9bdd08185d1d1858da1959604a1b604482015290519081900360640190fd5b600c546001600160a01b031615610c81576000610bfa612710610bf4600c60009054906101000a90046001600160a01b03166001600160a01b0316637fd6f15c6040518163ffffffff1660e01b815260040160206040518083038186803b158015610bbf57600080fd5b505afa158015610bd3573d6000803e3d6000fd5b505050506040513d6020811015610be957600080fd5b505160055490611dab565b90611e0b565b9050610c7f600c60009054906101000a90046001600160a01b03166001600160a01b031663da09c72c6040518163ffffffff1660e01b815260040160206040518083038186803b158015610c4d57600080fd5b505afa158015610c61573d6000803e3d6000fd5b505050506040513d6020811015610c7757600080fd5b505182611e75565b505b60004233600c60009054906101000a90046001600160a01b03166001600160a01b03166339988a556040518163ffffffff1660e01b815260040160206040518083038186803b158015610cd357600080fd5b505afa158015610ce7573d6000803e3d6000fd5b505050506040513d6020811015610cfd57600080fd5b5051604080516020818101959095526bffffffffffffffffffffffff19606094851b168183015260548101929092523090921b607482015281516068818303018152608890910190915280519101209050610d608133630307830360e41b611f6d565b60408051630307830360e41b8152905133917f14b4c5ebac03fadd36114aa5e1071180c591af97702dc3c39654fd66df0782b9919081900360200190a25060018055565b60055481565b630a85bd0160e11b949350505050565b610dc26121a9565b6001600160a01b0316610dd36116e5565b6001600160a01b031614610e1c576040805162461bcd60e51b81526020600482018190526024820152600080516020612859833981519152604482015290519081900360640190fd5b60026001541415610e62576040805162461bcd60e51b815260206004820152601f6024820152600080516020612768833981519152604482015290519081900360640190fd5b600260015580610eb0576040805162461bcd60e51b8152602060048201526014602482015273496e76616c6964207469636b657420707269636560601b604482015290519081900360640190fd5b60058190556040805182815290517f3462d2aa169371595270a759fcae589c337200296fbbcc4e1dc33424f0c460d69181900360200190a15060018055565b600080805b600960ff82161015610f4a5760ff808216600090815260066020526040902060028101549091610100909104168015610f325750600481015460ff16155b15610f41578060030154830192505b50600101610ef4565b50905090565b60096020526000908152604090208054600182015460028301546003909301546001600160a01b0390921692909160ff1684565b600b5481565b4790565b600760205260009081526040902080546001820154600283015460039093015491926001600160a01b0382169260ff600160a01b8404811693600160a81b900416919086565b610fdc6121a9565b6001600160a01b0316610fed6116e5565b6001600160a01b031614611036576040805162461bcd60e51b81526020600482018190526024820152600080516020612859833981519152604482015290519081900360640190fd5b6002600154141561107c576040805162461bcd60e51b815260206004820152601f6024820152600080516020612768833981519152604482015290519081900360640190fd5b60026001554761108c3382611e75565b5060018055565b600a5481565b600660205260009081526040902080546001820154600283015460038401546004909401546001600160a01b0393841694929360ff808416946101009485900482169490939182169291041687565b6110f06121a9565b6001600160a01b03166111016116e5565b6001600160a01b03161461114a576040805162461bcd60e51b81526020600482018190526024820152600080516020612859833981519152604482015290519081900360640190fd5b600080546040516001600160a01b03909116907f8be0079c531659141344cd1fd0a4f28419497f9722a3daafe3b4186f6b6457e0908390a3600080546001600160a01b0319169055565b600260015414156111da576040805162461bcd60e51b815260206004820152601f6024820152600080516020612768833981519152604482015290519081900360640190fd5b60026001556111e76121a9565b6001600160a01b03166111f86116e5565b6001600160a01b031614611241576040805162461bcd60e51b81526020600482018190526024820152600080516020612859833981519152604482015290519081900360640190fd5b60ff811660091161128b576040805162461bcd60e51b815260206004820152600f60248201526e125b9d985b1a59081cdb1bdd081251608a1b604482015290519081900360640190fd5b60ff80821660009081526006602052604090206002015461010090041615156001146112f2576040805162461bcd60e51b815260206004820152601160248201527054686520736c6f7420697320656d70747960781b604482015290519081900360640190fd5b60ff80821660009081526006602052604090206004015416156113465760405162461bcd60e51b815260040180806020018281038252602f815260200180612809602f913960400191505060405180910390fd5b60ff808216600090815260066020526040902060020154161561140f5760ff811660009081526006602052604080822080546001918201548351637921219560e11b8152306004808301919091523360248301526044820192909252606481019390935260a0608484015260a4830152630307830360e41b60c483015291516001600160a01b039092169263f242432a9260e48084019382900301818387803b1580156113f257600080fd5b505af1158015611406573d6000803e3d6000fd5b50505050611493565b60ff811660009081526006602052604080822080546001909101548251632142170760e11b8152306004820152336024820152604481019190915291516001600160a01b03909116926342842e0e926064808201939182900301818387803b15801561147a57600080fd5b505af115801561148e573d6000803e3d6000fd5b505050505b60ff8116600081815260066020908152604080832060028101805482546001600160a01b03191683556001830186905561ffff1916905560038101939093556004909201805460ff19169055815192835290517fa2733f5b2e51d6ca7ef5c0c4c6ac320492a86a684ca9545a832987acb27d4e449281900390910190a15060018055565b61151f6121a9565b6001600160a01b03166115306116e5565b6001600160a01b031614611579576040805162461bcd60e51b81526020600482018190526024820152600080516020612859833981519152604482015290519081900360640190fd5b600260015414156115bf576040805162461bcd60e51b815260206004820152601f6024820152600080516020612768833981519152604482015290519081900360640190fd5b60026001556005543414611614576040805162461bcd60e51b815260206004820152601760248201527614185e5b595b9d081a5cc81b9bdd08185d1d1858da1959604a1b604482015290519081900360640190fd5b600c546001600160a01b0316156116d357600061167e612710610bf4600c60009054906101000a90046001600160a01b03166001600160a01b0316637fd6f15c6040518163ffffffff1660e01b815260040160206040518083038186803b158015610bbf57600080fd5b90506116d1600c60009054906101000a90046001600160a01b03166001600160a01b031663da09c72c6040518163ffffffff1660e01b815260040160206040518083038186803b158015610c4d57600080fd5b505b61108c8133630307830360e41b611f6d565b6000546001600160a01b031690565b6004805460408051602060026001851615610100026000190190941693909304601f81018490048402820184019092528181529291830182828015610ab25780601f10610a8757610100808354040283529160200191610ab2565b60085481565b80156117f05760408051637921219560e11b815233600480830191909152306024830152604482018590526001606483015260a0608483015260a4820152630307830360e41b60c482015290516001600160a01b0386169163f242432a9160e480830192600092919082900301818387803b1580156117d357600080fd5b505af11580156117e7573d6000803e3d6000fd5b5050505061185d565b60408051632142170760e11b81523360048201523060248201526044810184905290516001600160a01b038616916342842e0e91606480830192600092919082900301818387803b15801561184457600080fd5b505af1158015611858573d6000803e3d6000fd5b505050505b611865612734565b6040518060800160405280866001600160a01b03168152602001858152602001848152602001831515815250905061189c816121ad565b604080516001600160a01b038716815260208101859052808201869052831515606082015290517f2563980d777d08206ebf7d959188447690ad039e4e40282fe463b014b1e405919181900360800190a15050505050565b63bc197c8160e01b95945050505050565b600c546001600160a01b031681565b6002600154141561195a576040805162461bcd60e51b815260206004820152601f6024820152600080516020612768833981519152604482015290519081900360640190fd5b60026001556119676121a9565b6001600160a01b03166119786116e5565b6001600160a01b0316146119c1576040805162461bcd60e51b81526020600482018190526024820152600080516020612859833981519152604482015290519081900360640190fd5b60ff8516600911611a0b576040805162461bcd60e51b815260206004820152600f60248201526e125b9d985b1a59081cdb1bdd081251608a1b604482015290519081900360640190fd5b836103e810158015611a1e575060018410155b611a595760405162461bcd60e51b81526004018080602001828103825260278152602001806127886027913960400191505060405180910390fd5b60ff80861660009081526006602052604090206002015461010090041615611abf576040805162461bcd60e51b8152602060048201526014602482015273151a19481cdb1bdd081a5cc81bd8d8dd5c1a595960621b604482015290519081900360640190fd5b8015611b5a5760408051637921219560e11b815233600480830191909152306024830152604482018590526001606483015260a0608483015260a4820152630307830360e41b60c482015290516001600160a01b0385169163f242432a9160e480830192600092919082900301818387803b158015611b3d57600080fd5b505af1158015611b51573d6000803e3d6000fd5b50505050611bc7565b60408051632142170760e11b81523360048201523060248201526044810184905290516001600160a01b038516916342842e0e91606480830192600092919082900301818387803b158015611bae57600080fd5b505af1158015611bc2573d6000803e3d6000fd5b505050505b60ff851660008181526006602090815260409182902060028101805482546001600160a01b038a166001600160a01b0319909116811784556001840189905587151560ff1961ff00199093166101001783168117909355600384018b9055600490930180549091169055835194855291840152828201859052606083015260808201869052517f2cefa006d1dff9a60df84bf57639a8704c83b4555197cccecdb18686ea1b5d439181900360a00190a1505060018055505050565b63f23a6e6160e01b95945050505050565b611c9b6121a9565b6001600160a01b0316611cac6116e5565b6001600160a01b031614611cf5576040805162461bcd60e51b81526020600482018190526024820152600080516020612859833981519152604482015290519081900360640190fd5b6001600160a01b038116611d3a5760405162461bcd60e51b81526004018080602001828103825260268152602001806127af6026913960400191505060405180910390fd5b600080546040516001600160a01b03808516939216917f8be0079c531659141344cd1fd0a4f28419497f9722a3daafe3b4186f6b6457e091a3600080546001600160a01b0319166001600160a01b0392909216919091179055565b600981565b6000611da582612218565b92915050565b600082611dba57506000611da5565b82820282848281611dc757fe5b0414611e045760405162461bcd60e51b81526004018080602001828103825260218152602001806128386021913960400191505060405180910390fd5b9392505050565b6000808211611e61576040805162461bcd60e51b815260206004820152601a60248201527f536166654d6174683a206469766973696f6e206279207a65726f000000000000604482015290519081900360640190fd5b6000828481611e6c57fe5b04949350505050565b604080516000808252602082019092526001600160a01b0384169083906040518082805190602001908083835b60208310611ec15780518252601f199092019160209182019101611ea2565b6001836020036101000a03801982511681845116808217855250505050505090500191505060006040518083038185875af1925050503d8060008114611f23576040519150601f19603f3d011682016040523d82523d6000602084013e611f28565b606091505b5050905080611f685760405162461bcd60e51b81526004018080602001828103825260348152602001806127d56034913960400191505060405180910390fd5b505050565b6000611f7884612218565b90506000806000806000805b600960ff8216101561203b5760ff808216600090815260066020526040902060028101549091610100909104168015611fc25750600481015460ff16155b15612032578060030154870196508787118015611fdd575085155b15612032576004810180546001600160a01b03808d1661010002610100600160a81b031960ff199093166001908117939093161790925582548382015491985093965092169350909150839061203282612226565b50600101611f84565b5086600760006008548152602001908152602001600020600001819055508760076000600854815260200190815260200160002060010160006101000a8154816001600160a01b0302191690836001600160a01b031602179055508360076000600854815260200190815260200160002060010160146101000a81548160ff0219169083151502179055508260076000600854815260200190815260200160002060010160156101000a81548160ff021916908360ff160217905550856007600060085481526020019081526020016000206002018190555084600760006008548152602001908152602001600020600301819055506001600860008282540192505081905550876001600160a01b03167f5b8e8daf777c45ee6d03cd0a9a3696bba9718a58d8a7897a07d4163ee4aa529b858484604051808415158152602001836001600160a01b03168152602001828152602001935050505060405180910390a2505050505050505050565b3390565b600b8054600190810191829055600091825260096020908152604092839020845181546001600160a01b0319166001600160a01b0390911617815590840151918101919091559082015160028201556060909101516003909101805460ff1916911515919091179055565b6000611da582612710612626565b60ff8116600911612270576040805162461bcd60e51b815260206004820152600f60248201526e125b9d985b1a59081cdb1bdd081251608a1b604482015290519081900360640190fd5b60ff80821660009081526006602052604090206002015461010090041615156001146122d7576040805162461bcd60e51b815260206004820152601160248201527054686520736c6f7420697320656d70747960781b604482015290519081900360640190fd5b60ff80821660009081526006602052604090206004015416151560011461233b576040805162461bcd60e51b815260206004820152601360248201527229ba34b636103430b9903737903bb4b73732b960691b604482015290519081900360640190fd5b60ff811660009081526006602052604090206004015461010090046001600160a01b031633146123b2576040805162461bcd60e51b815260206004820152601c60248201527f5468652063616c6c6572206973206e6f74207468652077696e6e657200000000604482015290519081900360640190fd5b60ff808216600090815260066020526040902060020154161561247b5760ff811660009081526006602052604080822080546001918201548351637921219560e11b8152306004808301919091523360248301526044820192909252606481019390935260a0608484015260a4830152630307830360e41b60c483015291516001600160a01b039092169263f242432a9260e48084019382900301818387803b15801561245e57600080fd5b505af1158015612472573d6000803e3d6000fd5b505050506124ff565b60ff811660009081526006602052604080822080546001909101548251632142170760e11b8152306004820152336024820152604481019190915291516001600160a01b03909116926342842e0e926064808201939182900301818387803b1580156124e657600080fd5b505af11580156124fa573d6000803e3d6000fd5b505050505b60ff8116600090815260066020526040812060028101805482546001600160a01b03191683556001830184905561ffff19169055600381019190915560040180546001600160a81b0319169055600a54600b54106125e65761255f612734565b61256761268b565b60ff8316600090815260066020908152604091829020600281018054855183546001600160a01b039091166001600160a01b03199091161783559385015160018301556060850151151560ff1961ff001990951661010017949094169390931790925590910151600382015560040180546001600160a81b0319169055505b6040805160ff8316815233602082015281517fa08eca08b0ad4a064c3c6c97083760288abe2920c3bef081303bb3f605401ba2929181900390910190a150565b60008161267a576040805162461bcd60e51b815260206004820152601860248201527f536166654d6174683a206d6f64756c6f206279207a65726f0000000000000000604482015290519081900360640190fd5b81838161268357fe5b069392505050565b612693612734565b600a54600b5410156126a457600080fd5b6126ac612734565b505060408051608081018252600a805460008181526009602081815286832080546001600160a01b038116885260018083018054858b01526002840180549b8b019b909b5260038401805460ff8116151560608d0152988852959094526001600160a01b0319909116909155908390559190955560ff19909116909355805490920190915590565b604051806080016040528060006001600160a01b031681526020016000815260200160008152602001600015158152509056fe5265656e7472616e637947756172643a207265656e7472616e742063616c6c0052616e646f6d6e6573732076616c7565206d757374206265206265747765656e20302d313030304f776e61626c653a206e6577206f776e657220697320746865207a65726f20616464726573735472616e7366657248656c7065723a3a736166655472616e736665724554483a20455448207472616e73666572206661696c6564546865206173736574206c6f636b6564206973206265696e6720636c61696d6564206279207468652077696e6e6572536166654d6174683a206d756c7469706c69636174696f6e206f766572666c6f774f776e61626c653a2063616c6c6572206973206e6f7420746865206f776e6572a26469706673582212206253ab719121280f543d3279dc5e5bc2aa030b90e94bf612cfbccb96e0afa31964736f6c634300060c00335265656e7472616e637947756172643a207265656e7472616e742063616c6c004f776e61626c653a206e6577206f776e657220697320746865207a65726f20616464726573734f776e61626c653a2063616c6c6572206973206e6f7420746865206f776e65725361666545524332303a204552433230206f7065726174696f6e20646964206e6f742073756363656564a26469706673582212200e75eeccd3f4f5601ccbca3ea5751817957b6757ec4dad3e159bbd45b92c816564736f6c634300060c0033",
  "devdoc": {
    "kind": "dev",
    "methods": {
      "owner()": {
        "details": "Returns the address of the current owner."
      },
      "renounceOwnership()": {
        "details": "Leaves the contract without owner. It will not be possible to call `onlyOwner` functions anymore. Can only be called by the current owner. NOTE: Renouncing ownership will leave the contract without an owner, thereby removing any functionality that is only available to the owner."
      },
      "transferOwnership(address)": {
        "details": "Transfers ownership of the contract to a new account (`newOwner`). Can only be called by the current owner."
      }
    },
    "title": "Factory for creating new luckbox contract.",
    "version": 1
  },
  "userdoc": {
    "kind": "user",
    "methods": {},
    "version": 1
  },
  "storageLayout": {
    "storage": [
      {
        "astId": 83,
        "contract": "contracts/Factory.sol:Factory",
        "label": "nonces",
        "offset": 0,
        "slot": "0",
        "type": "t_mapping(t_bytes32,t_uint256)"
      },
      {
        "astId": 5552,
        "contract": "contracts/Factory.sol:Factory",
        "label": "_status",
        "offset": 0,
        "slot": "1",
        "type": "t_uint256"
      },
      {
        "astId": 416,
        "contract": "contracts/Factory.sol:Factory",
        "label": "_owner",
        "offset": 0,
        "slot": "2",
        "type": "t_address"
      },
      {
        "astId": 5700,
        "contract": "contracts/Factory.sol:Factory",
        "label": "boxes",
        "offset": 0,
        "slot": "3",
        "type": "t_array(t_struct(Box)5697_storage)dyn_storage"
      },
      {
        "astId": 5702,
        "contract": "contracts/Factory.sol:Factory",
        "label": "totalBoxes",
        "offset": 0,
        "slot": "4",
        "type": "t_uint256"
      },
      {
        "astId": 5704,
        "contract": "contracts/Factory.sol:Factory",
        "label": "randomNonce",
        "offset": 0,
        "slot": "5",
        "type": "t_uint256"
      },
      {
        "astId": 5708,
        "contract": "contracts/Factory.sol:Factory",
        "label": "requestIdToAddress",
        "offset": 0,
        "slot": "6",
        "type": "t_mapping(t_bytes32,t_address)"
      },
      {
        "astId": 5710,
        "contract": "contracts/Factory.sol:Factory",
        "label": "devAddr",
        "offset": 0,
        "slot": "7",
        "type": "t_address"
      },
      {
        "astId": 5713,
        "contract": "contracts/Factory.sol:Factory",
        "label": "feePercent",
        "offset": 0,
        "slot": "8",
        "type": "t_uint256"
      },
      {
        "astId": 5719,
        "contract": "contracts/Factory.sol:Factory",
        "label": "COOLDOWN",
        "offset": 0,
        "slot": "9",
        "type": "t_uint256"
      },
      {
        "astId": 5721,
        "contract": "contracts/Factory.sol:Factory",
        "label": "timestamp",
        "offset": 0,
        "slot": "10",
        "type": "t_uint256"
      }
    ],
    "types": {
      "t_address": {
        "encoding": "inplace",
        "label": "address",
        "numberOfBytes": "20"
      },
      "t_array(t_struct(Box)5697_storage)dyn_storage": {
        "base": "t_struct(Box)5697_storage",
        "encoding": "dynamic_array",
        "label": "struct Factory.Box[]",
        "numberOfBytes": "32"
      },
      "t_bool": {
        "encoding": "inplace",
        "label": "bool",
        "numberOfBytes": "1"
      },
      "t_bytes32": {
        "encoding": "inplace",
        "label": "bytes32",
        "numberOfBytes": "32"
      },
      "t_mapping(t_bytes32,t_address)": {
        "encoding": "mapping",
        "key": "t_bytes32",
        "label": "mapping(bytes32 => address)",
        "numberOfBytes": "32",
        "value": "t_address"
      },
      "t_mapping(t_bytes32,t_uint256)": {
        "encoding": "mapping",
        "key": "t_bytes32",
        "label": "mapping(bytes32 => uint256)",
        "numberOfBytes": "32",
        "value": "t_uint256"
      },
      "t_string_storage": {
        "encoding": "bytes",
        "label": "string",
        "numberOfBytes": "32"
      },
      "t_struct(Box)5697_storage": {
        "encoding": "inplace",
        "label": "struct Factory.Box",
        "members": [
          {
            "astId": 5688,
            "contract": "contracts/Factory.sol:Factory",
            "label": "name",
            "offset": 0,
            "slot": "0",
            "type": "t_string_storage"
          },
          {
            "astId": 5690,
            "contract": "contracts/Factory.sol:Factory",
            "label": "symbol",
            "offset": 0,
            "slot": "1",
            "type": "t_string_storage"
          },
          {
            "astId": 5692,
            "contract": "contracts/Factory.sol:Factory",
            "label": "owner",
            "offset": 0,
            "slot": "2",
            "type": "t_address"
          },
          {
            "astId": 5694,
            "contract": "contracts/Factory.sol:Factory",
            "label": "contractAddress",
            "offset": 0,
            "slot": "3",
            "type": "t_address"
          },
          {
            "astId": 5696,
            "contract": "contracts/Factory.sol:Factory",
            "label": "banned",
            "offset": 20,
            "slot": "3",
            "type": "t_bool"
          }
        ],
        "numberOfBytes": "128"
      },
      "t_uint256": {
        "encoding": "inplace",
        "label": "uint256",
        "numberOfBytes": "32"
      }
    }
  }
}