{
  "address": "0x15E30D7C1f183d0983a0EA64288D4A218eFef272",
  "abi": [
    {
      "inputs": [
        {
          "internalType": "address",
          "name": "_devAddr",
          "type": "address"
        }
      ],
      "stateMutability": "nonpayable",
      "type": "constructor"
    },
    {
      "anonymous": false,
      "inputs": [
        {
          "indexed": true,
          "internalType": "address",
          "name": "_address",
          "type": "address"
        }
      ],
      "name": "LuckboxCreated",
      "type": "event"
    },
    {
      "anonymous": false,
      "inputs": [
        {
          "indexed": true,
          "internalType": "address",
          "name": "previousOwner",
          "type": "address"
        },
        {
          "indexed": true,
          "internalType": "address",
          "name": "newOwner",
          "type": "address"
        }
      ],
      "name": "OwnershipTransferred",
      "type": "event"
    },
    {
      "anonymous": false,
      "inputs": [
        {
          "indexed": false,
          "internalType": "address",
          "name": "user",
          "type": "address"
        },
        {
          "indexed": false,
          "internalType": "uint256",
          "name": "timestamp",
          "type": "uint256"
        }
      ],
      "name": "RequestedNonce",
      "type": "event"
    },
    {
      "anonymous": false,
      "inputs": [
        {
          "indexed": false,
          "internalType": "address",
          "name": "_devAddr",
          "type": "address"
        }
      ],
      "name": "SetDevAddr",
      "type": "event"
    },
    {
      "anonymous": false,
      "inputs": [
        {
          "indexed": false,
          "internalType": "uint256",
          "name": "_fee",
          "type": "uint256"
        }
      ],
      "name": "SetFee",
      "type": "event"
    },
    {
      "inputs": [],
      "name": "COOLDOWN",
      "outputs": [
        {
          "internalType": "uint256",
          "name": "",
          "type": "uint256"
        }
      ],
      "stateMutability": "view",
      "type": "function"
    },
    {
      "inputs": [],
      "name": "FEE",
      "outputs": [
        {
          "internalType": "uint256",
          "name": "",
          "type": "uint256"
        }
      ],
      "stateMutability": "view",
      "type": "function"
    },
    {
      "inputs": [],
      "name": "KEY_HASH",
      "outputs": [
        {
          "internalType": "bytes32",
          "name": "",
          "type": "bytes32"
        }
      ],
      "stateMutability": "view",
      "type": "function"
    },
    {
      "inputs": [],
      "name": "LINK_TOKEN",
      "outputs": [
        {
          "internalType": "address",
          "name": "",
          "type": "address"
        }
      ],
      "stateMutability": "view",
      "type": "function"
    },
    {
      "inputs": [],
      "name": "MAX_FEE",
      "outputs": [
        {
          "internalType": "uint256",
          "name": "",
          "type": "uint256"
        }
      ],
      "stateMutability": "view",
      "type": "function"
    },
    {
      "inputs": [],
      "name": "VRF_COORDINATOR",
      "outputs": [
        {
          "internalType": "address",
          "name": "",
          "type": "address"
        }
      ],
      "stateMutability": "view",
      "type": "function"
    },
    {
      "inputs": [
        {
          "internalType": "uint256",
          "name": "",
          "type": "uint256"
        }
      ],
      "name": "boxes",
      "outputs": [
        {
          "internalType": "string",
          "name": "name",
          "type": "string"
        },
        {
          "internalType": "string",
          "name": "symbol",
          "type": "string"
        },
        {
          "internalType": "address",
          "name": "owner",
          "type": "address"
        },
        {
          "internalType": "address",
          "name": "contractAddress",
          "type": "address"
        },
        {
          "internalType": "bool",
          "name": "banned",
          "type": "bool"
        },
        {
          "internalType": "bool",
          "name": "approved",
          "type": "bool"
        }
      ],
      "stateMutability": "view",
      "type": "function"
    },
    {
      "inputs": [
        {
          "internalType": "string",
          "name": "name",
          "type": "string"
        },
        {
          "internalType": "string",
          "name": "symbol",
          "type": "string"
        },
        {
          "internalType": "uint256",
          "name": "ticketPrice",
          "type": "uint256"
        }
      ],
      "name": "createLuckbox",
      "outputs": [],
      "stateMutability": "nonpayable",
      "type": "function"
    },
    {
      "inputs": [],
      "name": "devAddr",
      "outputs": [
        {
          "internalType": "address",
          "name": "",
          "type": "address"
        }
      ],
      "stateMutability": "view",
      "type": "function"
    },
    {
      "inputs": [],
      "name": "feePercent",
      "outputs": [
        {
          "internalType": "uint256",
          "name": "",
          "type": "uint256"
        }
      ],
      "stateMutability": "view",
      "type": "function"
    },
    {
      "inputs": [
        {
          "internalType": "uint256",
          "name": "_nonce",
          "type": "uint256"
        }
      ],
      "name": "forceNonceUpdate",
      "outputs": [],
      "stateMutability": "nonpayable",
      "type": "function"
    },
    {
      "inputs": [
        {
          "internalType": "uint256",
          "name": "_id",
          "type": "uint256"
        }
      ],
      "name": "getBoxContractAddress",
      "outputs": [
        {
          "internalType": "address",
          "name": "",
          "type": "address"
        }
      ],
      "stateMutability": "view",
      "type": "function"
    },
    {
      "inputs": [
        {
          "internalType": "uint256",
          "name": "_id",
          "type": "uint256"
        }
      ],
      "name": "getBoxName",
      "outputs": [
        {
          "internalType": "string",
          "name": "",
          "type": "string"
        }
      ],
      "stateMutability": "view",
      "type": "function"
    },
    {
      "inputs": [
        {
          "internalType": "uint256",
          "name": "_id",
          "type": "uint256"
        }
      ],
      "name": "getBoxOwner",
      "outputs": [
        {
          "internalType": "address",
          "name": "",
          "type": "address"
        }
      ],
      "stateMutability": "view",
      "type": "function"
    },
    {
      "inputs": [
        {
          "internalType": "uint256",
          "name": "_id",
          "type": "uint256"
        }
      ],
      "name": "getBoxSymbol",
      "outputs": [
        {
          "internalType": "string",
          "name": "",
          "type": "string"
        }
      ],
      "stateMutability": "view",
      "type": "function"
    },
    {
      "inputs": [
        {
          "internalType": "uint256",
          "name": "_id",
          "type": "uint256"
        }
      ],
      "name": "isApproved",
      "outputs": [
        {
          "internalType": "bool",
          "name": "",
          "type": "bool"
        }
      ],
      "stateMutability": "view",
      "type": "function"
    },
    {
      "inputs": [
        {
          "internalType": "uint256",
          "name": "_id",
          "type": "uint256"
        }
      ],
      "name": "isBanned",
      "outputs": [
        {
          "internalType": "bool",
          "name": "",
          "type": "bool"
        }
      ],
      "stateMutability": "view",
      "type": "function"
    },
    {
      "inputs": [],
      "name": "owner",
      "outputs": [
        {
          "internalType": "address",
          "name": "",
          "type": "address"
        }
      ],
      "stateMutability": "view",
      "type": "function"
    },
    {
      "inputs": [],
      "name": "randomNonce",
      "outputs": [
        {
          "internalType": "uint256",
          "name": "",
          "type": "uint256"
        }
      ],
      "stateMutability": "view",
      "type": "function"
    },
    {
      "inputs": [
        {
          "internalType": "bytes32",
          "name": "requestId",
          "type": "bytes32"
        },
        {
          "internalType": "uint256",
          "name": "randomness",
          "type": "uint256"
        }
      ],
      "name": "rawFulfillRandomness",
      "outputs": [],
      "stateMutability": "nonpayable",
      "type": "function"
    },
    {
      "inputs": [],
      "name": "renounceOwnership",
      "outputs": [],
      "stateMutability": "nonpayable",
      "type": "function"
    },
    {
      "inputs": [],
      "name": "requestNonce",
      "outputs": [],
      "stateMutability": "nonpayable",
      "type": "function"
    },
    {
      "inputs": [
        {
          "internalType": "uint256",
          "name": "_id",
          "type": "uint256"
        },
        {
          "internalType": "bool",
          "name": "_isApprove",
          "type": "bool"
        }
      ],
      "name": "setApprove",
      "outputs": [],
      "stateMutability": "nonpayable",
      "type": "function"
    },
    {
      "inputs": [
        {
          "internalType": "uint256",
          "name": "_id",
          "type": "uint256"
        },
        {
          "internalType": "bool",
          "name": "_isBan",
          "type": "bool"
        }
      ],
      "name": "setBan",
      "outputs": [],
      "stateMutability": "nonpayable",
      "type": "function"
    },
    {
      "inputs": [
        {
          "internalType": "address",
          "name": "_devAddr",
          "type": "address"
        }
      ],
      "name": "setDevAddr",
      "outputs": [],
      "stateMutability": "nonpayable",
      "type": "function"
    },
    {
      "inputs": [
        {
          "internalType": "uint256",
          "name": "_feePercent",
          "type": "uint256"
        }
      ],
      "name": "setFee",
      "outputs": [],
      "stateMutability": "nonpayable",
      "type": "function"
    },
    {
      "inputs": [],
      "name": "timestamp",
      "outputs": [
        {
          "internalType": "uint256",
          "name": "",
          "type": "uint256"
        }
      ],
      "stateMutability": "view",
      "type": "function"
    },
    {
      "inputs": [],
      "name": "totalBoxes",
      "outputs": [
        {
          "internalType": "uint256",
          "name": "",
          "type": "uint256"
        }
      ],
      "stateMutability": "view",
      "type": "function"
    },
    {
      "inputs": [],
      "name": "totalLink",
      "outputs": [
        {
          "internalType": "uint256",
          "name": "",
          "type": "uint256"
        }
      ],
      "stateMutability": "view",
      "type": "function"
    },
    {
      "inputs": [
        {
          "internalType": "address",
          "name": "newOwner",
          "type": "address"
        }
      ],
      "name": "transferOwnership",
      "outputs": [],
      "stateMutability": "nonpayable",
      "type": "function"
    },
    {
      "inputs": [
        {
          "internalType": "uint256",
          "name": "_amount",
          "type": "uint256"
        }
      ],
      "name": "withdrawLink",
      "outputs": [],
      "stateMutability": "nonpayable",
      "type": "function"
    }
  ],
  "transactionHash": "0x60d9bffd618f4e33a3abcd6947fb3a307f4ff7081e6f3df89841b9ad0118e178",
  "args": [
    "0x480cFCFD4059aa2e22d5fEFC42BaD2b5EfE96ECf"
  ],
  "solcInputHash": "bf2ab4d1473af59e7905d7d28b4205ec",
  "bytecode": "0x60c060405261012c600855600360095534801561001b57600080fd5b5060405162005590380380620055908339818101604052602081101561004057600080fd5b50517f3d2341adb2d31f1c5530cdc622016af293177ae000000000000000000000000060a0527fb0897686c545045afc77cf20ec7a532e3120e0f1000000000000000000000000608052600180556000610098610158565b600280546001600160a01b0319166001600160a01b038316908117909155604051919250906000907f8be0079c531659141344cd1fd0a4f28419497f9722a3daafe3b4186f6b6457e0908290a3506001600160a01b038116610133576040805162461bcd60e51b815260206004820152600f60248201526e41646472657373206973207a65726f60881b604482015290519081900360640190fd5b600780546001600160a01b0319166001600160a01b039290921691909117905561015c565b3390565b60805160601c60a05160601c6154056200018b600039806116535280611a4a525080611a1b52506154056000f3fe60806040523480156200001157600080fd5b5060043610620002145760003560e01c80637c1a03021162000129578063bc063e1a11620000b1578063da09c72c116200007b578063da09c72c14620006f7578063e217852c1462000701578063eedac3a61462000721578063f2fde38b146200072b5762000214565b8063bc063e1a146200069b578063c57981b514620006a5578063c57a9c5614620006af578063cefc2b9514620006cf5762000214565b806394985ddd11620000f357806394985ddd14620006415780639c9cf6681462000667578063a2724a4d1462000687578063b80777ea14620006915762000214565b80637c1a030214620006035780637fd6f15c146200060d5780638da5cb5b1462000617578063910ec7bf14620006215762000214565b806357e78adc11620001ad578063715018a61162000177578063715018a61462000585578063773e5e83146200058f5780637910867b14620005af5780637a8042bd14620005e35762000214565b806357e78adc146200050a5780636056e792146200051457806369fe0e2d146200053c5780636ebb64a2146200055c5762000214565b806339988a5511620001ef57806339988a5514620003285780634457222e14620003325780634ed3faf214620003ca57806351dc86a514620005005762000214565b806305f6a9241462000219578063167490ab146200023f5780633679dc46146200030c575b600080fd5b6200022362000754565b604080516001600160a01b039092168252519081900360200190f35b6200030a600480360360608110156200025757600080fd5b8101906020810181356401000000008111156200027357600080fd5b8201836020820111156200028657600080fd5b80359060200191846001830284011164010000000083111715620002a957600080fd5b919390929091602081019035640100000000811115620002c857600080fd5b820183602082011115620002db57600080fd5b80359060200191846001830284011164010000000083111715620002fe57600080fd5b9193509150356200076c565b005b6200031662000a76565b60408051918252519081900360200190f35b6200031662000aff565b62000352600480360360208110156200034a57600080fd5b503562000b05565b6040805160208082528351818301528351919283929083019185019080838360005b838110156200038e57818101518382015260200162000374565b50505050905090810190601f168015620003bc5780820380516001836020036101000a031916815260200191505b509250505060405180910390f35b620003ea60048036036020811015620003e257600080fd5b503562000bca565b604051808060200180602001876001600160a01b03168152602001866001600160a01b0316815260200185151581526020018415158152602001838103835289818151815260200191508051906020019080838360005b838110156200045b57818101518382015260200162000441565b50505050905090810190601f168015620004895780820380516001836020036101000a031916815260200191505b5083810382528851815288516020918201918a019080838360005b83811015620004be578181015183820152602001620004a4565b50505050905090810190601f168015620004ec5780820380516001836020036101000a031916815260200191505b509850505050505050505060405180910390f35b6200031662000d51565b6200031662000d75565b6200030a600480360360408110156200052c57600080fd5b5080359060200135151562000d7b565b6200030a600480360360208110156200055457600080fd5b503562000e77565b6200030a600480360360208110156200057457600080fd5b50356001600160a01b031662000fb9565b6200030a62001119565b6200030a60048036036020811015620005a757600080fd5b5035620011cb565b620005cf60048036036020811015620005c757600080fd5b503562001284565b604080519115158252519081900360200190f35b6200030a60048036036020811015620005fb57600080fd5b5035620012b8565b6200030a62001395565b62000316620015b8565b62000223620015be565b62000352600480360360208110156200063957600080fd5b5035620015cd565b6200030a600480360360408110156200065957600080fd5b508035906020013562001648565b62000223600480360360208110156200067f57600080fd5b5035620016d6565b6200031662001709565b620003166200170f565b6200031662001715565b620003166200171b565b620005cf60048036036020811015620006c757600080fd5b503562001725565b6200030a60048036036040811015620006e757600080fd5b5080359060200135151562001759565b6200022362001855565b62000223600480360360208110156200071957600080fd5b503562001864565b6200022362001897565b6200030a600480360360208110156200074357600080fd5b50356001600160a01b0316620018af565b733d2341adb2d31f1c5530cdc622016af293177ae081565b60026001541415620007b4576040805162461bcd60e51b815260206004820152601f602482015260008051602062005340833981519152604482015290519081900360640190fd5b60026001819055506000858585858530604051620007d29062001f48565b604081018390526001600160a01b038216606082015260808082528101869052806020810160a08201898980828437600083820152601f01601f1916909101848103835287815260200190508787808284376000838201819052604051601f909201601f19169093018190039b50995090975050505050505050f08015801562000860573d6000803e3d6000fd5b509050806001600160a01b031663f2fde38b336040518263ffffffff1660e01b815260040180826001600160a01b03168152602001915050600060405180830381600087803b158015620008b357600080fd5b505af1158015620008c8573d6000803e3d6000fd5b50506040805160e06020601f8b01819004028201810190925260c081018981528594506003935090918291908b908b9081908501838280828437600092019190915250505090825250604080516020601f8a018190048102820181019092528881529181019190899089908190840183828082843760009201829052509385525050336020808501919091526001600160a01b0387166040850152606084018390526080909301829052508354600181018555938152819020825180519394600402909101926200099d928492019062001f56565b506020828101518051620009b8926001850192019062001f56565b506040828101516002830180546001600160a01b03199081166001600160a01b0393841617909155606085015160039094018054608087015160a09097015192169483169490941760ff60a01b1916600160a01b951515959095029490941760ff60a81b1916600160a81b941515949094029390931790915560048054600101905542600a5551908216907f49592d1ca9e0713f1fd5561b294932ae67522e876a2d68050852a08eeb0d2dae90600090a25050600180555050505050565b604080516370a0823160e01b8152306004820152905160009173b0897686c545045afc77cf20ec7a532e3120e0f1916370a0823191602480820192602092909190829003018186803b15801562000acc57600080fd5b505afa15801562000ae1573d6000803e3d6000fd5b505050506040513d602081101562000af857600080fd5b5051905090565b60055481565b60606003828154811062000b1557fe5b90600052602060002090600402016001018054600181600116156101000203166002900480601f01602080910402602001604051908101604052809291908181526020018280546001816001161561010002031660029004801562000bbe5780601f1062000b925761010080835404028352916020019162000bbe565b820191906000526020600020905b81548152906001019060200180831162000ba057829003601f168201915b50505050509050919050565b6003818154811062000bd857fe5b60009182526020918290206004919091020180546040805160026001841615610100026000190190931692909204601f81018590048502830185019091528082529193509183919083018282801562000c755780601f1062000c495761010080835404028352916020019162000c75565b820191906000526020600020905b81548152906001019060200180831162000c5757829003601f168201915b505050505090806001018054600181600116156101000203166002900480601f01602080910402602001604051908101604052809291908181526020018280546001816001161561010002031660029004801562000d175780601f1062000ceb5761010080835404028352916020019162000d17565b820191906000526020600020905b81548152906001019060200180831162000cf957829003601f168201915b505050600284015460039094015492936001600160a01b0390811693908116925060ff600160a01b820481169250600160a81b9091041686565b7ff86195cf7690c55907b2b611ebb7343a6f649bff128701cc542f0569e2c549da81565b60045481565b62000d85620019ba565b6001600160a01b031662000d98620015be565b6001600160a01b03161462000de3576040805162461bcd60e51b8152602060048201819052602482015260008051602062005386833981519152604482015290519081900360640190fd5b6002600154141562000e2b576040805162461bcd60e51b815260206004820152601f602482015260008051602062005340833981519152604482015290519081900360640190fd5b6002600181905550806003838154811062000e4257fe5b600091825260209091206003600490920201018054911515600160a01b0260ff60a01b19909216919091179055505060018055565b62000e81620019ba565b6001600160a01b031662000e94620015be565b6001600160a01b03161462000edf576040805162461bcd60e51b8152602060048201819052602482015260008051602062005386833981519152604482015290519081900360640190fd5b6002600154141562000f27576040805162461bcd60e51b815260206004820152601f602482015260008051602062005340833981519152604482015290519081900360640190fd5b60026001556103e881111562000f7b576040805162461bcd60e51b815260206004820152601460248201527342656c6f77204d41585f46454520506c6561736560601b604482015290519081900360640190fd5b60088190556040805182815290517e172ddfc5ae88d08b3de01a5a187667c37a5a53989e8c175055cb6c993792a79181900360200190a15060018055565b62000fc3620019ba565b6001600160a01b031662000fd6620015be565b6001600160a01b03161462001021576040805162461bcd60e51b8152602060048201819052602482015260008051602062005386833981519152604482015290519081900360640190fd5b6002600154141562001069576040805162461bcd60e51b815260206004820152601f602482015260008051602062005340833981519152604482015290519081900360640190fd5b60026001556001600160a01b038116620010bb576040805162461bcd60e51b815260206004820152600e60248201526d41646472657373207a65726f202160901b604482015290519081900360640190fd5b600780546001600160a01b0319166001600160a01b03838116919091179182905560408051929091168252517f45c73fc162405abe4471c4228f0797176ac32cb9f7be4a25a67cbd1dda6d007e916020908290030190a15060018055565b62001123620019ba565b6001600160a01b031662001136620015be565b6001600160a01b03161462001181576040805162461bcd60e51b8152602060048201819052602482015260008051602062005386833981519152604482015290519081900360640190fd5b6002546040516000916001600160a01b0316907f8be0079c531659141344cd1fd0a4f28419497f9722a3daafe3b4186f6b6457e0908390a3600280546001600160a01b0319169055565b620011d5620019ba565b6001600160a01b0316620011e8620015be565b6001600160a01b03161462001233576040805162461bcd60e51b8152602060048201819052602482015260008051602062005386833981519152604482015290519081900360640190fd5b600260015414156200127b576040805162461bcd60e51b815260206004820152601f602482015260008051602062005340833981519152604482015290519081900360640190fd5b60055560018055565b6000600382815481106200129457fe5b6000918252602090912060049091020160030154600160a81b900460ff1692915050565b620012c2620019ba565b6001600160a01b0316620012d5620015be565b6001600160a01b03161462001320576040805162461bcd60e51b8152602060048201819052602482015260008051602062005386833981519152604482015290519081900360640190fd5b6002600154141562001368576040805162461bcd60e51b815260206004820152601f602482015260008051602062005340833981519152604482015290519081900360640190fd5b60026001556200138e73b0897686c545045afc77cf20ec7a532e3120e0f13383620019be565b5060018055565b60026001541415620013dd576040805162461bcd60e51b815260206004820152601f602482015260008051602062005340833981519152604482015290519081900360640190fd5b6002600155604080516370a0823160e01b81523060048201529051655af3107a40009173b0897686c545045afc77cf20ec7a532e3120e0f1916370a0823191602480820192602092909190829003018186803b1580156200143d57600080fd5b505afa15801562001452573d6000803e3d6000fd5b505050506040513d60208110156200146957600080fd5b50511015620014bf576040805162461bcd60e51b815260206004820181905260248201527f496e73756666696369656e74204c494e4b20746f2070726f6365656420565246604482015290519081900360640190fd5b600954600a54014210156200151b576040805162461bcd60e51b815260206004820152601860248201527f5374696c6c20696e20636f6f6c646f776e20706572696f640000000000000000604482015290519081900360640190fd5b60006200154f7ff86195cf7690c55907b2b611ebb7343a6f649bff128701cc542f0569e2c549da655af3107a400062001a17565b60008181526006602090815260409182902080546001600160a01b031916339081179091558251908152429181019190915281519293507ff5c46d4c0a0c0f013ccbcd52afc719e436d828ea2448a2b7261f7b1c4455a694929081900390910190a15060018055565b60085481565b6002546001600160a01b031690565b606060038281548110620015dd57fe5b6000918252602091829020600490910201805460408051601f600260001961010060018716150201909416939093049283018590048502810185019091528181529283018282801562000bbe5780601f1062000b925761010080835404028352916020019162000bbe565b336001600160a01b037f00000000000000000000000000000000000000000000000000000000000000001614620016c6576040805162461bcd60e51b815260206004820152601f60248201527f4f6e6c7920565246436f6f7264696e61746f722063616e2066756c66696c6c00604482015290519081900360640190fd5b620016d2828262001bd6565b5050565b600060038281548110620016e657fe5b60009182526020909120600490910201600301546001600160a01b031692915050565b60095481565b600a5481565b6103e881565b655af3107a400081565b6000600382815481106200173557fe5b6000918252602090912060049091020160030154600160a01b900460ff1692915050565b62001763620019ba565b6001600160a01b031662001776620015be565b6001600160a01b031614620017c1576040805162461bcd60e51b8152602060048201819052602482015260008051602062005386833981519152604482015290519081900360640190fd5b6002600154141562001809576040805162461bcd60e51b815260206004820152601f602482015260008051602062005340833981519152604482015290519081900360640190fd5b600260018190555080600383815481106200182057fe5b600091825260209091206003600490920201018054911515600160a81b0260ff60a81b19909216919091179055505060018055565b6007546001600160a01b031681565b6000600382815481106200187457fe5b60009182526020909120600490910201600201546001600160a01b031692915050565b73b0897686c545045afc77cf20ec7a532e3120e0f181565b620018b9620019ba565b6001600160a01b0316620018cc620015be565b6001600160a01b03161462001917576040805162461bcd60e51b8152602060048201819052602482015260008051602062005386833981519152604482015290519081900360640190fd5b6001600160a01b0381166200195e5760405162461bcd60e51b8152600401808060200182810382526026815260200180620053606026913960400191505060405180910390fd5b6002546040516001600160a01b038084169216907f8be0079c531659141344cd1fd0a4f28419497f9722a3daafe3b4186f6b6457e090600090a3600280546001600160a01b0319166001600160a01b0392909216919091179055565b3390565b604080516001600160a01b038416602482015260448082018490528251808303909101815260649091019091526020810180516001600160e01b031663a9059cbb60e01b17905262001a1290849062001bdc565b505050565b60007f00000000000000000000000000000000000000000000000000000000000000006001600160a01b0316634000aea07f00000000000000000000000000000000000000000000000000000000000000008486600060405160200180838152602001828152602001925050506040516020818303038152906040526040518463ffffffff1660e01b815260040180846001600160a01b0316815260200183815260200180602001828103825283818151815260200191508051906020019080838360005b8381101562001af657818101518382015260200162001adc565b50505050905090810190601f16801562001b245780820380516001836020036101000a031916815260200191505b50945050505050602060405180830381600087803b15801562001b4657600080fd5b505af115801562001b5b573d6000803e3d6000fd5b505050506040513d602081101562001b7257600080fd5b505060008381526020819052604081205462001b949085908390309062001c93565b60008581526020819052604090205490915062001bb390600162001cda565b60008581526020819052604090205562001bce848262001d3c565b949350505050565b60055550565b606062001c33826040518060400160405280602081526020017f5361666545524332303a206c6f772d6c6576656c2063616c6c206661696c6564815250856001600160a01b031662001d689092919063ffffffff16565b80519091501562001a125780806020019051602081101562001c5457600080fd5b505162001a125760405162461bcd60e51b815260040180806020018281038252602a815260200180620053a6602a913960400191505060405180910390fd5b60408051602080820196909652808201949094526001600160a01b039290921660608401526080808401919091528151808403909101815260a09092019052805191012090565b60008282018381101562001d35576040805162461bcd60e51b815260206004820152601b60248201527f536166654d6174683a206164646974696f6e206f766572666c6f770000000000604482015290519081900360640190fd5b9392505050565b604080516020808201949094528082019290925280518083038201815260609092019052805191012090565b606062001bce84846000858562001d7f8562001e98565b62001dd1576040805162461bcd60e51b815260206004820152601d60248201527f416464726573733a2063616c6c20746f206e6f6e2d636f6e7472616374000000604482015290519081900360640190fd5b60006060866001600160a01b031685876040518082805190602001908083835b6020831062001e125780518252601f19909201916020918201910162001df1565b6001836020036101000a03801982511681845116808217855250505050505090500191505060006040518083038185875af1925050503d806000811462001e76576040519150601f19603f3d011682016040523d82523d6000602084013e62001e7b565b606091505b509150915062001e8d82828662001e9e565b979650505050505050565b3b151590565b6060831562001eaf57508162001d35565b82511562001ec05782518084602001fd5b8160405162461bcd60e51b81526004018080602001828103825283818151815260200191508051906020019080838360005b8381101562001f0c57818101518382015260200162001ef2565b50505050905090810190601f16801562001f3a5780820380516001836020036101000a031916815260200191505b509250505060405180910390fd5b61334d8062001ff383390190565b828054600181600116156101000203166002900490600052602060002090601f016020900481019282601f1062001f9957805160ff191683800117855562001fc9565b8280016001018555821562001fc9579182015b8281111562001fc957825182559160200191906001019062001fac565b5062001fd792915062001fdb565b5090565b5b8082111562001fd7576000815560010162001fdc56fe60806040523480156200001157600080fd5b506040516200334d3803806200334d833981810160405260808110156200003757600080fd5b81019080805160405193929190846401000000008211156200005857600080fd5b9083019060208201858111156200006e57600080fd5b82516401000000008111828201881017156200008957600080fd5b82525081516020918201929091019080838360005b83811015620000b85781810151838201526020016200009e565b50505050905090810190601f168015620000e65780820380516001836020036101000a031916815260200191505b50604052602001805160405193929190846401000000008211156200010a57600080fd5b9083019060208201858111156200012057600080fd5b82516401000000008111828201881017156200013b57600080fd5b82525081516020918201929091019080838360005b838110156200016a57818101518382015260200162000150565b50505050905090810190601f168015620001985780820380516001836020036101000a031916815260200191505b506040908152602082015191015190925090506000620001b7620002e4565b600080546001600160a01b0319166001600160a01b0383169081178255604051929350917f8be0079c531659141344cd1fd0a4f28419497f9722a3daafe3b4186f6b6457e0908290a35060018055620002176301ffc9a760e01b620002e8565b62000229630271189760e51b620002e8565b816200027c576040805162461bcd60e51b815260206004820152601460248201527f496e76616c6964207469636b6574207072696365000000000000000000000000604482015290519081900360640190fd5b8351620002919060039060208701906200036d565b508251620002a79060049060208601906200036d565b506005829055600c80546001600160a01b0319166001600160a01b038316179055620002da630a85bd0160e11b620002e8565b5050505062000409565b3390565b6001600160e01b0319808216141562000348576040805162461bcd60e51b815260206004820152601c60248201527f4552433136353a20696e76616c696420696e7465726661636520696400000000604482015290519081900360640190fd5b6001600160e01b0319166000908152600260205260409020805460ff19166001179055565b828054600181600116156101000203166002900490600052602060002090601f016020900481019282601f10620003b057805160ff1916838001178555620003e0565b82800160010185558215620003e0579182015b82811115620003e0578251825591602001919060010190620003c3565b50620003ee929150620003f2565b5090565b5b80821115620003ee5760008155600101620003f3565b612f3480620004196000396000f3fe6080604052600436106101d85760003560e01c8063715018a611610102578063bc197c8111610095578063f2fde38b11610064578063f2fde38b14610a1e578063f3e414f814610a51578063f4a96d2214610a8a578063fdeba77c14610ab5576101d8565b8063bc197c8114610715578063c45a0155146108e3578063c59ad455146108f8578063f23a6e6114610948576101d8565b806395d89b41116100d157806395d89b411461066b578063a1db978214610680578063aa4fdefb146106b9578063ac4cf156146106ce576101d8565b8063715018a6146105db57806389fe7733146105f05780638cecc9c41461061d5780638da5cb5b1461063a576101d8565b8063264d84ca1161017a5780633c594059116101495780633c594059146104d2578063519af30e14610539578063547c36481461054e5780635992385914610563576101d8565b8063264d84ca1461040d578063295ca7fb1461046957806339ead7201461047e5780633c3c9c23146104bd576101d8565b80631209b1f6116101b65780631209b1f6146102b9578063150b7a02146102e057806315981650146103ce57806323659862146103f8576101d8565b806301ffc9a7146101dd57806306fdde03146102255780630eecae21146102af575b600080fd5b3480156101e957600080fd5b506102116004803603602081101561020057600080fd5b50356001600160e01b031916610adf565b604080519115158252519081900360200190f35b34801561023157600080fd5b5061023a610afe565b6040805160208082528351818301528351919283929083019185019080838360005b8381101561027457818101518382015260200161025c565b50505050905090810190601f1680156102a15780820380516001836020036101000a031916815260200191505b509250505060405180910390f35b6102b7610b8c565b005b3480156102c557600080fd5b506102ce610e76565b60408051918252519081900360200190f35b3480156102ec57600080fd5b506103b16004803603608081101561030357600080fd5b6001600160a01b03823581169260208101359091169160408201359190810190608081016060820135600160201b81111561033d57600080fd5b82018360208201111561034f57600080fd5b803590602001918460018302840111600160201b8311171561037057600080fd5b91908080601f016020809104026020016040519081016040528093929190818152602001838380828437600092019190915250929550610e7c945050505050565b604080516001600160e01b03199092168252519081900360200190f35b3480156103da57600080fd5b506102b7600480360360208110156103f157600080fd5b5035610e8c565b34801561040457600080fd5b506102ce610fc1565b34801561041957600080fd5b506104376004803603602081101561043057600080fd5b5035611022565b604080516001600160a01b03909516855260208501939093528383019190915215156060830152519081900360800190f35b34801561047557600080fd5b506102ce611056565b34801561048a57600080fd5b506102b7600480360360608110156104a157600080fd5b506001600160a01b03813516906020810135906040013561105c565b3480156104c957600080fd5b506102ce611153565b3480156104de57600080fd5b506104fc600480360360208110156104f557600080fd5b5035611157565b604080519687526001600160a01b0390951660208701529215158585015260ff9091166060850152608084015260a0830152519081900360c00190f35b34801561054557600080fd5b506102b761119d565b34801561055a57600080fd5b506102ce61125c565b34801561056f57600080fd5b506105906004803603602081101561058657600080fd5b503560ff16611262565b604080516001600160a01b03988916815260208101979097529415158686015292151560608601526080850191909152151560a084015290921660c082015290519081900360e00190f35b3480156105e757600080fd5b506102b76112b1565b3480156105fc57600080fd5b506102b76004803603602081101561061357600080fd5b503560ff1661135d565b6102b76004803603602081101561063357600080fd5b50356116e0565b34801561064657600080fd5b5061064f6118ae565b604080516001600160a01b039092168252519081900360200190f35b34801561067757600080fd5b5061023a6118bd565b34801561068c57600080fd5b506102b7600480360360408110156106a357600080fd5b506001600160a01b038135169060200135611918565b3480156106c557600080fd5b506102ce611992565b3480156106da57600080fd5b506102b7600480360360808110156106f157600080fd5b506001600160a01b0381351690602081013590604081013590606001351515611998565b34801561072157600080fd5b506103b1600480360360a081101561073857600080fd5b6001600160a01b038235811692602081013590911691810190606081016040820135600160201b81111561076b57600080fd5b82018360208201111561077d57600080fd5b803590602001918460208302840111600160201b8311171561079e57600080fd5b9190808060200260200160405190810160405280939291908181526020018383602002808284376000920191909152509295949360208101935035915050600160201b8111156107ed57600080fd5b8201836020820111156107ff57600080fd5b803590602001918460208302840111600160201b8311171561082057600080fd5b9190808060200260200160405190810160405280939291908181526020018383602002808284376000920191909152509295949360208101935035915050600160201b81111561086f57600080fd5b82018360208201111561088157600080fd5b803590602001918460018302840111600160201b831117156108a257600080fd5b91908080601f016020809104026020016040519081016040528093929190818152602001838380828437600092019190915250929550611b37945050505050565b3480156108ef57600080fd5b5061064f611b48565b34801561090457600080fd5b506102b7600480360360a081101561091b57600080fd5b5060ff813516906020810135906001600160a01b0360408201351690606081013590608001351515611b57565b34801561095457600080fd5b506103b1600480360360a081101561096b57600080fd5b6001600160a01b03823581169260208101359091169160408201359160608101359181019060a081016080820135600160201b8111156109aa57600080fd5b8201836020820111156109bc57600080fd5b803590602001918460018302840111600160201b831117156109dd57600080fd5b91908080601f016020809104026020016040519081016040528093929190818152602001838380828437600092019190915250929550611ec5945050505050565b348015610a2a57600080fd5b506102b760048036036020811015610a4157600080fd5b50356001600160a01b0316611ed6565b348015610a5d57600080fd5b506102b760048036036040811015610a7457600080fd5b506001600160a01b038135169060200135611fd8565b348015610a9657600080fd5b50610a9f6120aa565b6040805160ff9092168252519081900360200190f35b348015610ac157600080fd5b506102ce60048036036020811015610ad857600080fd5b50356120af565b6001600160e01b03191660009081526002602052604090205460ff1690565b6003805460408051602060026001851615610100026000190190941693909304601f81018490048402820184019092528181529291830182828015610b845780601f10610b5957610100808354040283529160200191610b84565b820191906000526020600020905b815481529060010190602001808311610b6757829003601f168201915b505050505081565b60026001541415610bd2576040805162461bcd60e51b815260206004820152601f6024820152600080516020612d9e833981519152604482015290519081900360640190fd5b60026001556005543414610c27576040805162461bcd60e51b815260206004820152601760248201527614185e5b595b9d081a5cc81b9bdd08185d1d1858da1959604a1b604482015290519081900360640190fd5b600c546001600160a01b031615610d53576000610ccc612710610cc6600c60009054906101000a90046001600160a01b03166001600160a01b0316637fd6f15c6040518163ffffffff1660e01b815260040160206040518083038186803b158015610c9157600080fd5b505afa158015610ca5573d6000803e3d6000fd5b505050506040513d6020811015610cbb57600080fd5b5051600554906120c0565b90612120565b9050610d51600c60009054906101000a90046001600160a01b03166001600160a01b031663da09c72c6040518163ffffffff1660e01b815260040160206040518083038186803b158015610d1f57600080fd5b505afa158015610d33573d6000803e3d6000fd5b505050506040513d6020811015610d4957600080fd5b50518261218a565b505b60004233600c60009054906101000a90046001600160a01b03166001600160a01b03166339988a556040518163ffffffff1660e01b815260040160206040518083038186803b158015610da557600080fd5b505afa158015610db9573d6000803e3d6000fd5b505050506040513d6020811015610dcf57600080fd5b5051604080516020818101959095526bffffffffffffffffffffffff19606094851b168183015260548101929092523090921b607482015281516068818303018152608890910190915280519101209050610e328133630307830360e41b612282565b60408051630307830360e41b8152905133917f14b4c5ebac03fadd36114aa5e1071180c591af97702dc3c39654fd66df0782b9919081900360200190a25060018055565b60055481565b630a85bd0160e11b949350505050565b610e946124be565b6001600160a01b0316610ea56118ae565b6001600160a01b031614610eee576040805162461bcd60e51b81526020600482018190526024820152600080516020612eb5833981519152604482015290519081900360640190fd5b60026001541415610f34576040805162461bcd60e51b815260206004820152601f6024820152600080516020612d9e833981519152604482015290519081900360640190fd5b600260015580610f82576040805162461bcd60e51b8152602060048201526014602482015273496e76616c6964207469636b657420707269636560601b604482015290519081900360640190fd5b60058190556040805182815290517f3462d2aa169371595270a759fcae589c337200296fbbcc4e1dc33424f0c460d69181900360200190a15060018055565b600080805b600960ff8216101561101c5760ff8082166000908152600660205260409020600281015490916101009091041680156110045750600481015460ff16155b15611013578060030154830192505b50600101610fc6565b50905090565b60096020526000908152604090208054600182015460028301546003909301546001600160a01b0390921692909160ff1684565b600b5481565b6110646124be565b6001600160a01b03166110756118ae565b6001600160a01b0316146110be576040805162461bcd60e51b81526020600482018190526024820152600080516020612eb5833981519152604482015290519081900360640190fd5b60408051637921219560e11b815230600480830191909152336024830152604482018590526064820184905260a0608483015260a4820152630307830360e41b60c482015290516001600160a01b0385169163f242432a9160e480830192600092919082900301818387803b15801561113657600080fd5b505af115801561114a573d6000803e3d6000fd5b50505050505050565b4790565b600760205260009081526040902080546001820154600283015460039093015491926001600160a01b0382169260ff600160a01b8404811693600160a81b900416919086565b6111a56124be565b6001600160a01b03166111b66118ae565b6001600160a01b0316146111ff576040805162461bcd60e51b81526020600482018190526024820152600080516020612eb5833981519152604482015290519081900360640190fd5b60026001541415611245576040805162461bcd60e51b815260206004820152601f6024820152600080516020612d9e833981519152604482015290519081900360640190fd5b600260015547611255338261218a565b5060018055565b600a5481565b600660205260009081526040902080546001820154600283015460038401546004909401546001600160a01b0393841694929360ff808416946101009485900482169490939182169291041687565b6112b96124be565b6001600160a01b03166112ca6118ae565b6001600160a01b031614611313576040805162461bcd60e51b81526020600482018190526024820152600080516020612eb5833981519152604482015290519081900360640190fd5b600080546040516001600160a01b03909116907f8be0079c531659141344cd1fd0a4f28419497f9722a3daafe3b4186f6b6457e0908390a3600080546001600160a01b0319169055565b600260015414156113a3576040805162461bcd60e51b815260206004820152601f6024820152600080516020612d9e833981519152604482015290519081900360640190fd5b60026001556113b06124be565b6001600160a01b03166113c16118ae565b6001600160a01b03161461140a576040805162461bcd60e51b81526020600482018190526024820152600080516020612eb5833981519152604482015290519081900360640190fd5b60ff8116600911611454576040805162461bcd60e51b815260206004820152600f60248201526e125b9d985b1a59081cdb1bdd081251608a1b604482015290519081900360640190fd5b60ff80821660009081526006602052604090206002015461010090041615156001146114bb576040805162461bcd60e51b815260206004820152601160248201527054686520736c6f7420697320656d70747960781b604482015290519081900360640190fd5b60ff808216600090815260066020526040902060040154161561150f5760405162461bcd60e51b815260040180806020018281038252602f815260200180612e18602f913960400191505060405180910390fd5b60ff80821660009081526006602052604090206002015416156115d85760ff811660009081526006602052604080822080546001918201548351637921219560e11b8152306004808301919091523360248301526044820192909252606481019390935260a0608484015260a4830152630307830360e41b60c483015291516001600160a01b039092169263f242432a9260e48084019382900301818387803b1580156115bb57600080fd5b505af11580156115cf573d6000803e3d6000fd5b5050505061165c565b60ff811660009081526006602052604080822080546001909101548251632142170760e11b8152306004820152336024820152604481019190915291516001600160a01b03909116926342842e0e926064808201939182900301818387803b15801561164357600080fd5b505af1158015611657573d6000803e3d6000fd5b505050505b60ff8116600081815260066020908152604080832060028101805482546001600160a01b03191683556001830186905561ffff1916905560038101939093556004909201805460ff19169055815192835290517fa2733f5b2e51d6ca7ef5c0c4c6ac320492a86a684ca9545a832987acb27d4e449281900390910190a15060018055565b6116e86124be565b6001600160a01b03166116f96118ae565b6001600160a01b031614611742576040805162461bcd60e51b81526020600482018190526024820152600080516020612eb5833981519152604482015290519081900360640190fd5b60026001541415611788576040805162461bcd60e51b815260206004820152601f6024820152600080516020612d9e833981519152604482015290519081900360640190fd5b600260015560055434146117dd576040805162461bcd60e51b815260206004820152601760248201527614185e5b595b9d081a5cc81b9bdd08185d1d1858da1959604a1b604482015290519081900360640190fd5b600c546001600160a01b03161561189c576000611847612710610cc6600c60009054906101000a90046001600160a01b03166001600160a01b0316637fd6f15c6040518163ffffffff1660e01b815260040160206040518083038186803b158015610c9157600080fd5b905061189a600c60009054906101000a90046001600160a01b03166001600160a01b031663da09c72c6040518163ffffffff1660e01b815260040160206040518083038186803b158015610d1f57600080fd5b505b6112558133630307830360e41b612282565b6000546001600160a01b031690565b6004805460408051602060026001851615610100026000190190941693909304601f81018490048402820184019092528181529291830182828015610b845780601f10610b5957610100808354040283529160200191610b84565b6119206124be565b6001600160a01b03166119316118ae565b6001600160a01b03161461197a576040805162461bcd60e51b81526020600482018190526024820152600080516020612eb5833981519152604482015290519081900360640190fd5b61198e6001600160a01b03831633836124c2565b5050565b60085481565b8015611a335760408051637921219560e11b815233600480830191909152306024830152604482018590526001606483015260a0608483015260a4820152630307830360e41b60c482015290516001600160a01b0386169163f242432a9160e480830192600092919082900301818387803b158015611a1657600080fd5b505af1158015611a2a573d6000803e3d6000fd5b50505050611aa0565b60408051632142170760e11b81523360048201523060248201526044810184905290516001600160a01b038616916342842e0e91606480830192600092919082900301818387803b158015611a8757600080fd5b505af1158015611a9b573d6000803e3d6000fd5b505050505b611aa8612d6a565b6040518060800160405280866001600160a01b031681526020018581526020018481526020018315158152509050611adf81612514565b604080516001600160a01b038716815260208101859052808201869052831515606082015290517f2563980d777d08206ebf7d959188447690ad039e4e40282fe463b014b1e405919181900360800190a15050505050565b63bc197c8160e01b95945050505050565b600c546001600160a01b031681565b60026001541415611b9d576040805162461bcd60e51b815260206004820152601f6024820152600080516020612d9e833981519152604482015290519081900360640190fd5b6002600155611baa6124be565b6001600160a01b0316611bbb6118ae565b6001600160a01b031614611c04576040805162461bcd60e51b81526020600482018190526024820152600080516020612eb5833981519152604482015290519081900360640190fd5b60ff8516600911611c4e576040805162461bcd60e51b815260206004820152600f60248201526e125b9d985b1a59081cdb1bdd081251608a1b604482015290519081900360640190fd5b836107d010158015611c61575060018410155b611c9c5760405162461bcd60e51b8152600401808060200182810382526027815260200180612e6d6027913960400191505060405180910390fd5b60ff80861660009081526006602052604090206002015461010090041615611d02576040805162461bcd60e51b8152602060048201526014602482015273151a19481cdb1bdd081a5cc81bd8d8dd5c1a595960621b604482015290519081900360640190fd5b8015611d9d5760408051637921219560e11b815233600480830191909152306024830152604482018590526001606483015260a0608483015260a4820152630307830360e41b60c482015290516001600160a01b0385169163f242432a9160e480830192600092919082900301818387803b158015611d8057600080fd5b505af1158015611d94573d6000803e3d6000fd5b50505050611e0a565b60408051632142170760e11b81523360048201523060248201526044810184905290516001600160a01b038516916342842e0e91606480830192600092919082900301818387803b158015611df157600080fd5b505af1158015611e05573d6000803e3d6000fd5b505050505b60ff851660008181526006602090815260409182902060028101805482546001600160a01b038a166001600160a01b0319909116811784556001840189905587151560ff1961ff00199093166101001783168117909355600384018b9055600490930180549091169055835194855291840152828201859052606083015260808201869052517f2cefa006d1dff9a60df84bf57639a8704c83b4555197cccecdb18686ea1b5d439181900360a00190a1505060018055505050565b63f23a6e6160e01b95945050505050565b611ede6124be565b6001600160a01b0316611eef6118ae565b6001600160a01b031614611f38576040805162461bcd60e51b81526020600482018190526024820152600080516020612eb5833981519152604482015290519081900360640190fd5b6001600160a01b038116611f7d5760405162461bcd60e51b8152600401808060200182810382526026815260200180612dbe6026913960400191505060405180910390fd5b600080546040516001600160a01b03808516939216917f8be0079c531659141344cd1fd0a4f28419497f9722a3daafe3b4186f6b6457e091a3600080546001600160a01b0319166001600160a01b0392909216919091179055565b611fe06124be565b6001600160a01b0316611ff16118ae565b6001600160a01b03161461203a576040805162461bcd60e51b81526020600482018190526024820152600080516020612eb5833981519152604482015290519081900360640190fd5b60408051632142170760e11b81523060048201523360248201526044810183905290516001600160a01b038416916342842e0e91606480830192600092919082900301818387803b15801561208e57600080fd5b505af11580156120a2573d6000803e3d6000fd5b505050505050565b600981565b60006120ba8261257f565b92915050565b6000826120cf575060006120ba565b828202828482816120dc57fe5b04146121195760405162461bcd60e51b8152600401808060200182810382526021815260200180612e946021913960400191505060405180910390fd5b9392505050565b6000808211612176576040805162461bcd60e51b815260206004820152601a60248201527f536166654d6174683a206469766973696f6e206279207a65726f000000000000604482015290519081900360640190fd5b600082848161218157fe5b04949350505050565b604080516000808252602082019092526001600160a01b0384169083906040518082805190602001908083835b602083106121d65780518252601f1990920191602091820191016121b7565b6001836020036101000a03801982511681845116808217855250505050505090500191505060006040518083038185875af1925050503d8060008114612238576040519150601f19603f3d011682016040523d82523d6000602084013e61223d565b606091505b505090508061227d5760405162461bcd60e51b8152600401808060200182810382526034815260200180612de46034913960400191505060405180910390fd5b505050565b600061228d8461257f565b90506000806000806000805b600960ff821610156123505760ff8082166000908152600660205260409020600281015490916101009091041680156122d75750600481015460ff16155b156123475780600301548701965087871180156122f2575085155b15612347576004810180546001600160a01b03808d1661010002610100600160a81b031960ff19909316600190811793909316179092558254838201549198509396509216935090915083906123478261258d565b50600101612299565b5086600760006008548152602001908152602001600020600001819055508760076000600854815260200190815260200160002060010160006101000a8154816001600160a01b0302191690836001600160a01b031602179055508360076000600854815260200190815260200160002060010160146101000a81548160ff0219169083151502179055508260076000600854815260200190815260200160002060010160156101000a81548160ff021916908360ff160217905550856007600060085481526020019081526020016000206002018190555084600760006008548152602001908152602001600020600301819055506001600860008282540192505081905550876001600160a01b03167f5b8e8daf777c45ee6d03cd0a9a3696bba9718a58d8a7897a07d4163ee4aa529b858484604051808415158152602001836001600160a01b03168152602001828152602001935050505060405180910390a2505050505050505050565b3390565b604080516001600160a01b038416602482015260448082018490528251808303909101815260649091019091526020810180516001600160e01b031663a9059cbb60e01b17905261227d90849061298e565b600b8054600190810191829055600091825260096020908152604092839020845181546001600160a01b0319166001600160a01b0390911617815590840151918101919091559082015160028201556060909101516003909101805460ff1916911515919091179055565b60006120ba82612710612a3f565b60ff81166009116125d7576040805162461bcd60e51b815260206004820152600f60248201526e125b9d985b1a59081cdb1bdd081251608a1b604482015290519081900360640190fd5b60ff808216600090815260066020526040902060020154610100900416151560011461263e576040805162461bcd60e51b815260206004820152601160248201527054686520736c6f7420697320656d70747960781b604482015290519081900360640190fd5b60ff8082166000908152600660205260409020600401541615156001146126a2576040805162461bcd60e51b815260206004820152601360248201527229ba34b636103430b9903737903bb4b73732b960691b604482015290519081900360640190fd5b60ff811660009081526006602052604090206004015461010090046001600160a01b03163314612719576040805162461bcd60e51b815260206004820152601c60248201527f5468652063616c6c6572206973206e6f74207468652077696e6e657200000000604482015290519081900360640190fd5b60ff80821660009081526006602052604090206002015416156127e25760ff811660009081526006602052604080822080546001918201548351637921219560e11b8152306004808301919091523360248301526044820192909252606481019390935260a0608484015260a4830152630307830360e41b60c483015291516001600160a01b039092169263f242432a9260e48084019382900301818387803b1580156127c557600080fd5b505af11580156127d9573d6000803e3d6000fd5b50505050612866565b60ff811660009081526006602052604080822080546001909101548251632142170760e11b8152306004820152336024820152604481019190915291516001600160a01b03909116926342842e0e926064808201939182900301818387803b15801561284d57600080fd5b505af1158015612861573d6000803e3d6000fd5b505050505b60ff8116600090815260066020526040812060028101805482546001600160a01b03191683556001830184905561ffff19169055600381019190915560040180546001600160a81b0319169055600a54600b54111561294e576128c7612d6a565b6128cf612aa4565b60ff8316600090815260066020908152604091829020600281018054855183546001600160a01b039091166001600160a01b03199091161783559385015160018301556060850151151560ff1961ff001990951661010017949094169390931790925590910151600382015560040180546001600160a81b0319169055505b6040805160ff8316815233602082015281517fa08eca08b0ad4a064c3c6c97083760288abe2920c3bef081303bb3f605401ba2929181900390910190a150565b60606129e3826040518060400160405280602081526020017f5361666545524332303a206c6f772d6c6576656c2063616c6c206661696c6564815250856001600160a01b0316612b4d9092919063ffffffff16565b80519091501561227d57808060200190516020811015612a0257600080fd5b505161227d5760405162461bcd60e51b815260040180806020018281038252602a815260200180612ed5602a913960400191505060405180910390fd5b600081612a93576040805162461bcd60e51b815260206004820152601860248201527f536166654d6174683a206d6f64756c6f206279207a65726f0000000000000000604482015290519081900360640190fd5b818381612a9c57fe5b069392505050565b612aac612d6a565b600a54600b541015612abd57600080fd5b612ac5612d6a565b505060408051608081018252600a805460008181526009602081815286832080546001600160a01b038116885260018083018054858b01526002840180549b8b019b909b5260038401805460ff8116151560608d0152988852959094526001600160a01b0319909116909155908390559190955560ff19909116909355805490920190915590565b6060612b5c8484600085612b64565b949350505050565b606082471015612ba55760405162461bcd60e51b8152600401808060200182810382526026815260200180612e476026913960400191505060405180910390fd5b612bae85612cc0565b612bff576040805162461bcd60e51b815260206004820152601d60248201527f416464726573733a2063616c6c20746f206e6f6e2d636f6e7472616374000000604482015290519081900360640190fd5b60006060866001600160a01b031685876040518082805190602001908083835b60208310612c3e5780518252601f199092019160209182019101612c1f565b6001836020036101000a03801982511681845116808217855250505050505090500191505060006040518083038185875af1925050503d8060008114612ca0576040519150601f19603f3d011682016040523d82523d6000602084013e612ca5565b606091505b5091509150612cb5828286612cc6565b979650505050505050565b3b151590565b60608315612cd5575081612119565b825115612ce55782518084602001fd5b8160405162461bcd60e51b81526004018080602001828103825283818151815260200191508051906020019080838360005b83811015612d2f578181015183820152602001612d17565b50505050905090810190601f168015612d5c5780820380516001836020036101000a031916815260200191505b509250505060405180910390fd5b604051806080016040528060006001600160a01b031681526020016000815260200160008152602001600015158152509056fe5265656e7472616e637947756172643a207265656e7472616e742063616c6c004f776e61626c653a206e6577206f776e657220697320746865207a65726f20616464726573735472616e7366657248656c7065723a3a736166655472616e736665724554483a20455448207472616e73666572206661696c6564546865206173736574206c6f636b6564206973206265696e6720636c61696d6564206279207468652077696e6e6572416464726573733a20696e73756666696369656e742062616c616e636520666f722063616c6c52616e646f6d6e6573732076616c7565206d757374206265206265747765656e20302d32303030536166654d6174683a206d756c7469706c69636174696f6e206f766572666c6f774f776e61626c653a2063616c6c6572206973206e6f7420746865206f776e65725361666545524332303a204552433230206f7065726174696f6e20646964206e6f742073756363656564a264697066735822122089334862cb123bc8c126faecb201feb5dc9a2d2a511da2d6e0c31eaad3a0e83e64736f6c634300060c00335265656e7472616e637947756172643a207265656e7472616e742063616c6c004f776e61626c653a206e6577206f776e657220697320746865207a65726f20616464726573734f776e61626c653a2063616c6c6572206973206e6f7420746865206f776e65725361666545524332303a204552433230206f7065726174696f6e20646964206e6f742073756363656564a26469706673582212200176e9b7654f7866624c9c5881cd7a9e8ca0626f16e2cd8c0150a484c2ce988864736f6c634300060c0033",
  "devdoc": {
    "kind": "dev",
    "methods": {
      "owner()": {
        "details": "Returns the address of the current owner."
      },
      "renounceOwnership()": {
        "details": "Leaves the contract without owner. It will not be possible to call `onlyOwner` functions anymore. Can only be called by the current owner. NOTE: Renouncing ownership will leave the contract without an owner, thereby removing any functionality that is only available to the owner."
      },
      "transferOwnership(address)": {
        "details": "Transfers ownership of the contract to a new account (`newOwner`). Can only be called by the current owner."
      }
    },
    "title": "Factory for creating new luckbox contract.",
    "version": 1
  },
  "userdoc": {
    "kind": "user",
    "methods": {},
    "version": 1
  },
  "storageLayout": {
    "storage": [
      {
        "astId": 83,
        "contract": "contracts/Factory.sol:Factory",
        "label": "nonces",
        "offset": 0,
        "slot": "0",
        "type": "t_mapping(t_bytes32,t_uint256)"
      },
      {
        "astId": 5552,
        "contract": "contracts/Factory.sol:Factory",
        "label": "_status",
        "offset": 0,
        "slot": "1",
        "type": "t_uint256"
      },
      {
        "astId": 416,
        "contract": "contracts/Factory.sol:Factory",
        "label": "_owner",
        "offset": 0,
        "slot": "2",
        "type": "t_address"
      },
      {
        "astId": 5702,
        "contract": "contracts/Factory.sol:Factory",
        "label": "boxes",
        "offset": 0,
        "slot": "3",
        "type": "t_array(t_struct(Box)5699_storage)dyn_storage"
      },
      {
        "astId": 5704,
        "contract": "contracts/Factory.sol:Factory",
        "label": "totalBoxes",
        "offset": 0,
        "slot": "4",
        "type": "t_uint256"
      },
      {
        "astId": 5706,
        "contract": "contracts/Factory.sol:Factory",
        "label": "randomNonce",
        "offset": 0,
        "slot": "5",
        "type": "t_uint256"
      },
      {
        "astId": 5710,
        "contract": "contracts/Factory.sol:Factory",
        "label": "requestIdToAddress",
        "offset": 0,
        "slot": "6",
        "type": "t_mapping(t_bytes32,t_address)"
      },
      {
        "astId": 5712,
        "contract": "contracts/Factory.sol:Factory",
        "label": "devAddr",
        "offset": 0,
        "slot": "7",
        "type": "t_address"
      },
      {
        "astId": 5715,
        "contract": "contracts/Factory.sol:Factory",
        "label": "feePercent",
        "offset": 0,
        "slot": "8",
        "type": "t_uint256"
      },
      {
        "astId": 5721,
        "contract": "contracts/Factory.sol:Factory",
        "label": "COOLDOWN",
        "offset": 0,
        "slot": "9",
        "type": "t_uint256"
      },
      {
        "astId": 5723,
        "contract": "contracts/Factory.sol:Factory",
        "label": "timestamp",
        "offset": 0,
        "slot": "10",
        "type": "t_uint256"
      }
    ],
    "types": {
      "t_address": {
        "encoding": "inplace",
        "label": "address",
        "numberOfBytes": "20"
      },
      "t_array(t_struct(Box)5699_storage)dyn_storage": {
        "base": "t_struct(Box)5699_storage",
        "encoding": "dynamic_array",
        "label": "struct Factory.Box[]",
        "numberOfBytes": "32"
      },
      "t_bool": {
        "encoding": "inplace",
        "label": "bool",
        "numberOfBytes": "1"
      },
      "t_bytes32": {
        "encoding": "inplace",
        "label": "bytes32",
        "numberOfBytes": "32"
      },
      "t_mapping(t_bytes32,t_address)": {
        "encoding": "mapping",
        "key": "t_bytes32",
        "label": "mapping(bytes32 => address)",
        "numberOfBytes": "32",
        "value": "t_address"
      },
      "t_mapping(t_bytes32,t_uint256)": {
        "encoding": "mapping",
        "key": "t_bytes32",
        "label": "mapping(bytes32 => uint256)",
        "numberOfBytes": "32",
        "value": "t_uint256"
      },
      "t_string_storage": {
        "encoding": "bytes",
        "label": "string",
        "numberOfBytes": "32"
      },
      "t_struct(Box)5699_storage": {
        "encoding": "inplace",
        "label": "struct Factory.Box",
        "members": [
          {
            "astId": 5688,
            "contract": "contracts/Factory.sol:Factory",
            "label": "name",
            "offset": 0,
            "slot": "0",
            "type": "t_string_storage"
          },
          {
            "astId": 5690,
            "contract": "contracts/Factory.sol:Factory",
            "label": "symbol",
            "offset": 0,
            "slot": "1",
            "type": "t_string_storage"
          },
          {
            "astId": 5692,
            "contract": "contracts/Factory.sol:Factory",
            "label": "owner",
            "offset": 0,
            "slot": "2",
            "type": "t_address"
          },
          {
            "astId": 5694,
            "contract": "contracts/Factory.sol:Factory",
            "label": "contractAddress",
            "offset": 0,
            "slot": "3",
            "type": "t_address"
          },
          {
            "astId": 5696,
            "contract": "contracts/Factory.sol:Factory",
            "label": "banned",
            "offset": 20,
            "slot": "3",
            "type": "t_bool"
          },
          {
            "astId": 5698,
            "contract": "contracts/Factory.sol:Factory",
            "label": "approved",
            "offset": 21,
            "slot": "3",
            "type": "t_bool"
          }
        ],
        "numberOfBytes": "128"
      },
      "t_uint256": {
        "encoding": "inplace",
        "label": "uint256",
        "numberOfBytes": "32"
      }
    }
  }
}