{
  "address": "0x6959EB056ef346475E42188440a20ACc2F7756D6",
  "abi": [
    {
      "anonymous": false,
      "inputs": [
        {
          "indexed": true,
          "internalType": "address",
          "name": "_address",
          "type": "address"
        }
      ],
      "name": "LuckboxCreated",
      "type": "event"
    },
    {
      "inputs": [
        {
          "internalType": "uint256",
          "name": "",
          "type": "uint256"
        }
      ],
      "name": "boxes",
      "outputs": [
        {
          "internalType": "string",
          "name": "name",
          "type": "string"
        },
        {
          "internalType": "string",
          "name": "symbol",
          "type": "string"
        },
        {
          "internalType": "address",
          "name": "owner",
          "type": "address"
        },
        {
          "internalType": "address",
          "name": "contractAddress",
          "type": "address"
        }
      ],
      "stateMutability": "view",
      "type": "function"
    },
    {
      "inputs": [
        {
          "internalType": "string",
          "name": "name",
          "type": "string"
        },
        {
          "internalType": "string",
          "name": "symbol",
          "type": "string"
        },
        {
          "internalType": "uint256",
          "name": "ticketPrice",
          "type": "uint256"
        }
      ],
      "name": "createLuckbox",
      "outputs": [],
      "stateMutability": "nonpayable",
      "type": "function"
    },
    {
      "inputs": [
        {
          "internalType": "uint256",
          "name": "_id",
          "type": "uint256"
        }
      ],
      "name": "getBoxContractAddress",
      "outputs": [
        {
          "internalType": "address",
          "name": "",
          "type": "address"
        }
      ],
      "stateMutability": "view",
      "type": "function"
    },
    {
      "inputs": [
        {
          "internalType": "uint256",
          "name": "_id",
          "type": "uint256"
        }
      ],
      "name": "getBoxName",
      "outputs": [
        {
          "internalType": "string",
          "name": "",
          "type": "string"
        }
      ],
      "stateMutability": "view",
      "type": "function"
    },
    {
      "inputs": [
        {
          "internalType": "uint256",
          "name": "_id",
          "type": "uint256"
        }
      ],
      "name": "getBoxOwner",
      "outputs": [
        {
          "internalType": "address",
          "name": "",
          "type": "address"
        }
      ],
      "stateMutability": "view",
      "type": "function"
    },
    {
      "inputs": [
        {
          "internalType": "uint256",
          "name": "_id",
          "type": "uint256"
        }
      ],
      "name": "getBoxSymbol",
      "outputs": [
        {
          "internalType": "string",
          "name": "",
          "type": "string"
        }
      ],
      "stateMutability": "view",
      "type": "function"
    },
    {
      "inputs": [],
      "name": "totalBoxes",
      "outputs": [
        {
          "internalType": "uint256",
          "name": "",
          "type": "uint256"
        }
      ],
      "stateMutability": "view",
      "type": "function"
    }
  ],
  "transactionHash": "0xdd33ffc9f7cff4be5774439715b61796e00025002c56be75a1bf43914910861a",
  "args": [],
  "solcInputHash": "962597674ec1684c44e86174a05be903",
  "bytecode": "0x608060405234801561001057600080fd5b506001600081905550615515806100286000396000f3fe60806040523480156200001157600080fd5b5060043610620000885760003560e01c806357e78adc116200006357806357e78adc1462000371578063910ec7bf14620003915780639c9cf668146200043e578063e217852c14620004995762000088565b8063167490ab146200008d5780634457222e146200016e5780634ed3faf2146200021b575b600080fd5b6200016c60048036036060811015620000a557600080fd5b8101908080359060200190640100000000811115620000c357600080fd5b820183602082011115620000d657600080fd5b80359060200191846001830284011164010000000083111715620000f957600080fd5b9091929391929390803590602001906401000000008111156200011b57600080fd5b8201836020820111156200012e57600080fd5b803590602001918460018302840111640100000000831117156200015157600080fd5b909192939192939080359060200190929190505050620004f4565b005b6200019d600480360360208110156200018657600080fd5b8101908080359060200190929190505050620008d4565b6040518080602001828103825283818151815260200191508051906020019080838360005b83811015620001df578082015181840152602081019050620001c2565b50505050905090810190601f1680156200020d5780820380516001836020036101000a031916815260200191505b509250505060405180910390f35b6200024a600480360360208110156200023357600080fd5b810190808035906020019092919050505062000999565b6040518080602001806020018573ffffffffffffffffffffffffffffffffffffffff1681526020018473ffffffffffffffffffffffffffffffffffffffff168152602001838103835287818151815260200191508051906020019080838360005b83811015620002c8578082015181840152602081019050620002ab565b50505050905090810190601f168015620002f65780820380516001836020036101000a031916815260200191505b50838103825286818151815260200191508051906020019080838360005b838110156200033157808201518184015260208101905062000314565b50505050905090810190601f1680156200035f5780820380516001836020036101000a031916815260200191505b50965050505050505060405180910390f35b6200037b62000b4f565b6040518082815260200191505060405180910390f35b620003c060048036036020811015620003a957600080fd5b810190808035906020019092919050505062000b55565b6040518080602001828103825283818151815260200191508051906020019080838360005b8381101562000402578082015181840152602081019050620003e5565b50505050905090810190601f168015620004305780820380516001836020036101000a031916815260200191505b509250505060405180910390f35b6200046d600480360360208110156200045657600080fd5b810190808035906020019092919050505062000c1a565b604051808273ffffffffffffffffffffffffffffffffffffffff16815260200191505060405180910390f35b620004c860048036036020811015620004b157600080fd5b810190808035906020019092919050505062000c63565b604051808273ffffffffffffffffffffffffffffffffffffffff16815260200191505060405180910390f35b600260005414156200056e576040517f08c379a000000000000000000000000000000000000000000000000000000000815260040180806020018281038252601f8152602001807f5265656e7472616e637947756172643a207265656e7472616e742063616c6c0081525060200191505060405180910390fd5b6002600081905550600085858585856040516200058b9062000cac565b8080602001806020018481526020018381038352888882818152602001925080828437600081840152601f19601f8201169050808301925050508381038252868682818152602001925080828437600081840152601f19601f820116905080830192505050975050505050505050604051809103906000f08015801562000616573d6000803e3d6000fd5b5090508073ffffffffffffffffffffffffffffffffffffffff1663f2fde38b336040518263ffffffff1660e01b8152600401808273ffffffffffffffffffffffffffffffffffffffff168152602001915050600060405180830381600087803b1580156200068357600080fd5b505af115801562000698573d6000803e3d6000fd5b5050505060008190506001604051806080016040528089898080601f016020809104026020016040519081016040528093929190818152602001838380828437600081840152601f19601f82011690508083019250505050505050815260200187878080601f016020809104026020016040519081016040528093929190818152602001838380828437600081840152601f19601f8201169050808301925050505050505081526020013373ffffffffffffffffffffffffffffffffffffffff1681526020018373ffffffffffffffffffffffffffffffffffffffff1681525090806001815401808255809150506001900390600052602060002090600402016000909190919091506000820151816000019080519060200190620007bf92919062000cba565b506020820151816001019080519060200190620007de92919062000cba565b5060408201518160020160006101000a81548173ffffffffffffffffffffffffffffffffffffffff021916908373ffffffffffffffffffffffffffffffffffffffff16021790555060608201518160030160006101000a81548173ffffffffffffffffffffffffffffffffffffffff021916908373ffffffffffffffffffffffffffffffffffffffff160217905550505060016002600082825401925050819055508073ffffffffffffffffffffffffffffffffffffffff167f49592d1ca9e0713f1fd5561b294932ae67522e876a2d68050852a08eeb0d2dae60405160405180910390a2505060016000819055505050505050565b606060018281548110620008e457fe5b90600052602060002090600402016001018054600181600116156101000203166002900480601f0160208091040260200160405190810160405280929190818152602001828054600181600116156101000203166002900480156200098d5780601f1062000961576101008083540402835291602001916200098d565b820191906000526020600020905b8154815290600101906020018083116200096f57829003601f168201915b50505050509050919050565b60018181548110620009a757fe5b9060005260206000209060040201600091509050806000018054600181600116156101000203166002900480601f01602080910402602001604051908101604052809291908181526020018280546001816001161561010002031660029004801562000a575780601f1062000a2b5761010080835404028352916020019162000a57565b820191906000526020600020905b81548152906001019060200180831162000a3957829003601f168201915b505050505090806001018054600181600116156101000203166002900480601f01602080910402602001604051908101604052809291908181526020018280546001816001161561010002031660029004801562000af95780601f1062000acd5761010080835404028352916020019162000af9565b820191906000526020600020905b81548152906001019060200180831162000adb57829003601f168201915b5050505050908060020160009054906101000a900473ffffffffffffffffffffffffffffffffffffffff16908060030160009054906101000a900473ffffffffffffffffffffffffffffffffffffffff16905084565b60025481565b60606001828154811062000b6557fe5b90600052602060002090600402016000018054600181600116156101000203166002900480601f01602080910402602001604051908101604052809291908181526020018280546001816001161561010002031660029004801562000c0e5780601f1062000be25761010080835404028352916020019162000c0e565b820191906000526020600020905b81548152906001019060200180831162000bf057829003601f168201915b50505050509050919050565b60006001828154811062000c2a57fe5b906000526020600020906004020160030160009054906101000a900473ffffffffffffffffffffffffffffffffffffffff169050919050565b60006001828154811062000c7357fe5b906000526020600020906004020160020160009054906101000a900473ffffffffffffffffffffffffffffffffffffffff169050919050565b61477f8062000d6183390190565b828054600181600116156101000203166002900490600052602060002090601f016020900481019282601f1062000cfd57805160ff191683800117855562000d2e565b8280016001018555821562000d2e579182015b8281111562000d2d57825182559160200191906001019062000d10565b5b50905062000d3d919062000d41565b5090565b5b8082111562000d5c57600081600090555060010162000d42565b509056fe60c06040523480156200001157600080fd5b506040516200477f3803806200477f833981810160405260608110156200003757600080fd5b81019080805160405193929190846401000000008211156200005857600080fd5b838201915060208201858111156200006f57600080fd5b82518660018202830111640100000000821117156200008d57600080fd5b8083526020830192505050908051906020019080838360005b83811015620000c3578082015181840152602081019050620000a6565b50505050905090810190601f168015620000f15780820380516001836020036101000a031916815260200191505b50604052602001805160405193929190846401000000008211156200011557600080fd5b838201915060208201858111156200012c57600080fd5b82518660018202830111640100000000821117156200014a57600080fd5b8083526020830192505050908051906020019080838360005b838110156200018057808201518184015260208101905062000163565b50505050905090810190601f168015620001ae5780820380516001836020036101000a031916815260200191505b5060405260200180519060200190929190505050733d2341adb2d31f1c5530cdc622016af293177ae073b0897686c545045afc77cf20ec7a532e3120e0f18173ffffffffffffffffffffffffffffffffffffffff1660a08173ffffffffffffffffffffffffffffffffffffffff1660601b815250508073ffffffffffffffffffffffffffffffffffffffff1660808173ffffffffffffffffffffffffffffffffffffffff1660601b81525050505060006200026e6200042060201b60201c565b905080600160006101000a81548173ffffffffffffffffffffffffffffffffffffffff021916908373ffffffffffffffffffffffffffffffffffffffff1602179055508073ffffffffffffffffffffffffffffffffffffffff16600073ffffffffffffffffffffffffffffffffffffffff167f8be0079c531659141344cd1fd0a4f28419497f9722a3daafe3b4186f6b6457e060405160405180910390a35060016002819055506200032d6301ffc9a760e01b6200042860201b60201c565b6200034e63bc197c8160e01b63f23a6e6160e01b186200042860201b60201c565b6000811415620003c6576040517f08c379a00000000000000000000000000000000000000000000000000000000081526004018080602001828103825260148152602001807f496e76616c6964207469636b657420707269636500000000000000000000000081525060200191505060405180910390fd5b8260059080519060200190620003de92919062000532565b508160069080519060200190620003f792919062000532565b50806007819055506200041763150b7a0260e01b6200042860201b60201c565b505050620005d8565b600033905090565b63ffffffff60e01b817bffffffffffffffffffffffffffffffffffffffffffffffffffffffff19161415620004c5576040517f08c379a000000000000000000000000000000000000000000000000000000000815260040180806020018281038252601c8152602001807f4552433136353a20696e76616c696420696e746572666163652069640000000081525060200191505060405180910390fd5b600160036000837bffffffffffffffffffffffffffffffffffffffffffffffffffffffff19167bffffffffffffffffffffffffffffffffffffffffffffffffffffffff1916815260200190815260200160002060006101000a81548160ff02191690831515021790555050565b828054600181600116156101000203166002900490600052602060002090601f016020900481019282601f106200057557805160ff1916838001178555620005a6565b82800160010185558215620005a6579182015b82811115620005a557825182559160200191906001019062000588565b5b509050620005b59190620005b9565b5090565b5b80821115620005d4576000816000905550600101620005ba565b5090565b60805160601c60a05160601c6141786200060760003980612bd852806135ee5250806135b252506141786000f3fe6080604052600436106101d85760003560e01c8063715018a611610102578063bc197c8111610095578063f23a6e6111610064578063f23a6e6114610c6f578063f2fde38b14610dbe578063f4a96d2214610e0f578063fdeba77c14610e3d576101d8565b8063bc197c8114610922578063c57981b514610b85578063c59ad45514610bb0578063eedac3a614610c2e576101d8565b80638da5cb5b116100d15780638da5cb5b146107e157806394985ddd1461082257806395d89b4114610867578063aa4fdefb146108f7576101d8565b8063715018a6146107235780637a8042bd1461073a57806389fe7733146107755780638cecc9c4146107b3576101d8565b8063236598621161017a5780633c594059116101495780633c594059146105a6578063519af30e1461063357806351dc86a51461064a5780635992385914610675576101d8565b806323659862146104e75780633679dc46146105125780633befe2ca1461053d5780633c3c9c231461057b576101d8565b80630eecae21116101b65780630eecae211461031e5780631209b1f61461033c578063150b7a021461036757806315981650146104ac576101d8565b806301ffc9a7146101dd57806305f6a9241461024d57806306fdde031461028e575b600080fd5b3480156101e957600080fd5b506102356004803603602081101561020057600080fd5b8101908080357bffffffffffffffffffffffffffffffffffffffffffffffffffffffff19169060200190929190505050610e8c565b60405180821515815260200191505060405180910390f35b34801561025957600080fd5b50610262610ef4565b604051808273ffffffffffffffffffffffffffffffffffffffff16815260200191505060405180910390f35b34801561029a57600080fd5b506102a3610f0c565b6040518080602001828103825283818151815260200191508051906020019080838360005b838110156102e35780820151818401526020810190506102c8565b50505050905090810190601f1680156103105780820380516001836020036101000a031916815260200191505b509250505060405180910390f35b610326610faa565b6040518082815260200191505060405180910390f35b34801561034857600080fd5b506103516112b3565b6040518082815260200191505060405180910390f35b34801561037357600080fd5b506104776004803603608081101561038a57600080fd5b81019080803573ffffffffffffffffffffffffffffffffffffffff169060200190929190803573ffffffffffffffffffffffffffffffffffffffff16906020019092919080359060200190929190803590602001906401000000008111156103f157600080fd5b82018360208201111561040357600080fd5b8035906020019184600183028401116401000000008311171561042557600080fd5b91908080601f016020809104026020016040519081016040528093929190818152602001838380828437600081840152601f19601f8201169050808301925050505050505091929192905050506112b9565b60405180827bffffffffffffffffffffffffffffffffffffffffffffffffffffffff1916815260200191505060405180910390f35b3480156104b857600080fd5b506104e5600480360360208110156104cf57600080fd5b81019080803590602001909291905050506112cd565b005b3480156104f357600080fd5b506104fc6114bb565b6040518082815260200191505060405180910390f35b34801561051e57600080fd5b50610527611549565b6040518082815260200191505060405180910390f35b34801561054957600080fd5b506105796004803603602081101561056057600080fd5b81019080803560ff169060200190929190505050611606565b005b34801561058757600080fd5b50610590611cb4565b6040518082815260200191505060405180910390f35b3480156105b257600080fd5b506105df600480360360208110156105c957600080fd5b8101908080359060200190929190505050611cbc565b604051808781526020018673ffffffffffffffffffffffffffffffffffffffff16815260200185151581526020018460ff168152602001838152602001828152602001965050505050505060405180910390f35b34801561063f57600080fd5b50610648611d32565b005b34801561065657600080fd5b5061065f611f4d565b6040518082815260200191505060405180910390f35b34801561068157600080fd5b506106b16004803603602081101561069857600080fd5b81019080803560ff169060200190929190505050611f74565b604051808873ffffffffffffffffffffffffffffffffffffffff1681526020018781526020018615158152602001851515815260200184815260200183151581526020018273ffffffffffffffffffffffffffffffffffffffff16815260200197505050505050505060405180910390f35b34801561072f57600080fd5b5061073861201d565b005b34801561074657600080fd5b506107736004803603602081101561075d57600080fd5b810190808035906020019092919050505061218d565b005b34801561078157600080fd5b506107b16004803603602081101561079857600080fd5b81019080803560ff169060200190929190505050612305565b005b6107df600480360360208110156107c957600080fd5b81019080803590602001909291905050506129d1565b005b3480156107ed57600080fd5b506107f6612bac565b604051808273ffffffffffffffffffffffffffffffffffffffff16815260200191505060405180910390f35b34801561082e57600080fd5b506108656004803603604081101561084557600080fd5b810190808035906020019092919080359060200190929190505050612bd6565b005b34801561087357600080fd5b5061087c612ca5565b6040518080602001828103825283818151815260200191508051906020019080838360005b838110156108bc5780820151818401526020810190506108a1565b50505050905090810190601f1680156108e95780820380516001836020036101000a031916815260200191505b509250505060405180910390f35b34801561090357600080fd5b5061090c612d43565b6040518082815260200191505060405180910390f35b34801561092e57600080fd5b50610b50600480360360a081101561094557600080fd5b81019080803573ffffffffffffffffffffffffffffffffffffffff169060200190929190803573ffffffffffffffffffffffffffffffffffffffff169060200190929190803590602001906401000000008111156109a257600080fd5b8201836020820111156109b457600080fd5b803590602001918460208302840111640100000000831117156109d657600080fd5b919080806020026020016040519081016040528093929190818152602001838360200280828437600081840152601f19601f82011690508083019250505050505050919291929080359060200190640100000000811115610a3657600080fd5b820183602082011115610a4857600080fd5b80359060200191846020830284011164010000000083111715610a6a57600080fd5b919080806020026020016040519081016040528093929190818152602001838360200280828437600081840152601f19601f82011690508083019250505050505050919291929080359060200190640100000000811115610aca57600080fd5b820183602082011115610adc57600080fd5b80359060200191846001830284011164010000000083111715610afe57600080fd5b91908080601f016020809104026020016040519081016040528093929190818152602001838380828437600081840152601f19601f820116905080830192505050505050509192919290505050612d49565b60405180827bffffffffffffffffffffffffffffffffffffffffffffffffffffffff1916815260200191505060405180910390f35b348015610b9157600080fd5b50610b9a612d5e565b6040518082815260200191505060405180910390f35b348015610bbc57600080fd5b50610c2c600480360360a0811015610bd357600080fd5b81019080803560ff16906020019092919080359060200190929190803573ffffffffffffffffffffffffffffffffffffffff16906020019092919080359060200190929190803515159060200190929190505050612d68565b005b348015610c3a57600080fd5b50610c43613375565b604051808273ffffffffffffffffffffffffffffffffffffffff16815260200191505060405180910390f35b348015610c7b57600080fd5b50610d89600480360360a0811015610c9257600080fd5b81019080803573ffffffffffffffffffffffffffffffffffffffff169060200190929190803573ffffffffffffffffffffffffffffffffffffffff169060200190929190803590602001909291908035906020019092919080359060200190640100000000811115610d0357600080fd5b820183602082011115610d1557600080fd5b80359060200191846001830284011164010000000083111715610d3757600080fd5b91908080601f016020809104026020016040519081016040528093929190818152602001838380828437600081840152601f19601f82011690508083019250505050505050919291929050505061338d565b60405180827bffffffffffffffffffffffffffffffffffffffffffffffffffffffff1916815260200191505060405180910390f35b348015610dca57600080fd5b50610e0d60048036036020811015610de157600080fd5b81019080803573ffffffffffffffffffffffffffffffffffffffff1690602001909291905050506133a2565b005b348015610e1b57600080fd5b50610e24613597565b604051808260ff16815260200191505060405180910390f35b348015610e4957600080fd5b50610e7660048036036020811015610e6057600080fd5b810190808035906020019092919050505061359c565b6040518082815260200191505060405180910390f35b600060036000837bffffffffffffffffffffffffffffffffffffffffffffffffffffffff19167bffffffffffffffffffffffffffffffffffffffffffffffffffffffff1916815260200190815260200160002060009054906101000a900460ff169050919050565b733d2341adb2d31f1c5530cdc622016af293177ae081565b60058054600181600116156101000203166002900480601f016020809104026020016040519081016040528092919081815260200182805460018160011615610100020316600290048015610fa25780601f10610f7757610100808354040283529160200191610fa2565b820191906000526020600020905b815481529060010190602001808311610f8557829003601f168201915b505050505081565b6000600280541415611024576040517f08c379a000000000000000000000000000000000000000000000000000000000815260040180806020018281038252601f8152602001807f5265656e7472616e637947756172643a207265656e7472616e742063616c6c0081525060200191505060405180910390fd5b6002808190555060075434146110a2576040517f08c379a00000000000000000000000000000000000000000000000000000000081526004018080602001828103825260178152602001807f5061796d656e74206973206e6f7420617474616368656400000000000000000081525060200191505060405180910390fd5b655af3107a400073b0897686c545045afc77cf20ec7a532e3120e0f173ffffffffffffffffffffffffffffffffffffffff166370a08231306040518263ffffffff1660e01b8152600401808273ffffffffffffffffffffffffffffffffffffffff16815260200191505060206040518083038186803b15801561112457600080fd5b505afa158015611138573d6000803e3d6000fd5b505050506040513d602081101561114e57600080fd5b810190808051906020019092919050505010156111d3576040517f08c379a00000000000000000000000000000000000000000000000000000000081526004018080602001828103825260208152602001807f496e73756666696369656e74204c494e4b20746f2070726f636565642056524681525060200191505060405180910390fd5b6112067ff86195cf7690c55907b2b611ebb7343a6f649bff128701cc542f0569e2c549da60001b655af3107a40006135ae565b9050336004600083815260200190815260200160002060006101000a81548173ffffffffffffffffffffffffffffffffffffffff021916908373ffffffffffffffffffffffffffffffffffffffff1602179055503373ffffffffffffffffffffffffffffffffffffffff167f14b4c5ebac03fadd36114aa5e1071180c591af97702dc3c39654fd66df0782b9826040518082815260200191505060405180910390a2600160028190555090565b60075481565b600063150b7a0260e01b9050949350505050565b6112d56137a4565b73ffffffffffffffffffffffffffffffffffffffff166112f3612bac565b73ffffffffffffffffffffffffffffffffffffffff161461137c576040517f08c379a00000000000000000000000000000000000000000000000000000000081526004018080602001828103825260208152602001807f4f776e61626c653a2063616c6c6572206973206e6f7420746865206f776e657281525060200191505060405180910390fd5b6002805414156113f4576040517f08c379a000000000000000000000000000000000000000000000000000000000815260040180806020018281038252601f8152602001807f5265656e7472616e637947756172643a207265656e7472616e742063616c6c0081525060200191505060405180910390fd5b600280819055506000811415611472576040517f08c379a00000000000000000000000000000000000000000000000000000000081526004018080602001828103825260148152602001807f496e76616c6964207469636b657420707269636500000000000000000000000081525060200191505060405180910390fd5b806007819055507f3462d2aa169371595270a759fcae589c337200296fbbcc4e1dc33424f0c460d6816040518082815260200191505060405180910390a1600160028190555050565b6000806000905060005b600960ff168160ff161015611541576000600860008360ff1660ff16815260200190815260200160002090508060020160019054906101000a900460ff1680156115245750600015158160040160009054906101000a900460ff161515145b15611533578060030154830192505b5080806001019150506114c5565b508091505090565b600073b0897686c545045afc77cf20ec7a532e3120e0f173ffffffffffffffffffffffffffffffffffffffff166370a08231306040518263ffffffff1660e01b8152600401808273ffffffffffffffffffffffffffffffffffffffff16815260200191505060206040518083038186803b1580156115c657600080fd5b505afa1580156115da573d6000803e3d6000fd5b505050506040513d60208110156115f057600080fd5b8101908080519060200190929190505050905090565b8060ff16600960ff1611611682576040517f08c379a000000000000000000000000000000000000000000000000000000000815260040180806020018281038252600f8152602001807f496e76616c696420736c6f74204944000000000000000000000000000000000081525060200191505060405180910390fd5b60011515600860008360ff1660ff16815260200190815260200160002060020160019054906101000a900460ff16151514611725576040517f08c379a00000000000000000000000000000000000000000000000000000000081526004018080602001828103825260118152602001807f54686520736c6f7420697320656d70747900000000000000000000000000000081525060200191505060405180910390fd5b60011515600860008360ff1660ff16815260200190815260200160002060040160009054906101000a900460ff161515146117c8576040517f08c379a00000000000000000000000000000000000000000000000000000000081526004018080602001828103825260138152602001807f5374696c6c20686173206e6f2077696e6e65720000000000000000000000000081525060200191505060405180910390fd5b3373ffffffffffffffffffffffffffffffffffffffff16600860008360ff1660ff16815260200190815260200160002060040160019054906101000a900473ffffffffffffffffffffffffffffffffffffffff1673ffffffffffffffffffffffffffffffffffffffff16146118a5576040517f08c379a000000000000000000000000000000000000000000000000000000000815260040180806020018281038252601c8152602001807f5468652063616c6c6572206973206e6f74207468652077696e6e65720000000081525060200191505060405180910390fd5b600860008260ff1660ff16815260200190815260200160002060020160009054906101000a900460ff1615611a1a57600860008260ff1660ff16815260200190815260200160002060000160009054906101000a900473ffffffffffffffffffffffffffffffffffffffff1673ffffffffffffffffffffffffffffffffffffffff1663f242432a3033600860008660ff1660ff1681526020019081526020016000206001015460016040518563ffffffff1660e01b8152600401808573ffffffffffffffffffffffffffffffffffffffff1681526020018473ffffffffffffffffffffffffffffffffffffffff16815260200183815260200182815260200180602001828103825260048152602001807f307830300000000000000000000000000000000000000000000000000000000081525060200195505050505050600060405180830381600087803b1580156119fd57600080fd5b505af1158015611a11573d6000803e3d6000fd5b50505050611b1a565b600860008260ff1660ff16815260200190815260200160002060000160009054906101000a900473ffffffffffffffffffffffffffffffffffffffff1673ffffffffffffffffffffffffffffffffffffffff166342842e0e3033600860008660ff1660ff168152602001908152602001600020600101546040518463ffffffff1660e01b8152600401808473ffffffffffffffffffffffffffffffffffffffff1681526020018373ffffffffffffffffffffffffffffffffffffffff1681526020018281526020019350505050600060405180830381600087803b158015611b0157600080fd5b505af1158015611b15573d6000803e3d6000fd5b505050505b6000600860008360ff1660ff16815260200190815260200160002060020160016101000a81548160ff0219169083151502179055506000600860008360ff1660ff16815260200190815260200160002060000160006101000a81548173ffffffffffffffffffffffffffffffffffffffff021916908373ffffffffffffffffffffffffffffffffffffffff1602179055506000600860008360ff1660ff168152602001908152602001600020600101819055506000600860008360ff1660ff16815260200190815260200160002060020160006101000a81548160ff0219169083151502179055506000600860008360ff1660ff168152602001908152602001600020600301819055506000600860008360ff1660ff16815260200190815260200160002060040160006101000a81548160ff0219169083151502179055507fa08eca08b0ad4a064c3c6c97083760288abe2920c3bef081303bb3f605401ba28133604051808360ff1681526020018273ffffffffffffffffffffffffffffffffffffffff1681526020019250505060405180910390a150565b600047905090565b60096020528060005260406000206000915090508060000154908060010160009054906101000a900473ffffffffffffffffffffffffffffffffffffffff16908060010160149054906101000a900460ff16908060010160159054906101000a900460ff16908060020154908060030154905086565b611d3a6137a4565b73ffffffffffffffffffffffffffffffffffffffff16611d58612bac565b73ffffffffffffffffffffffffffffffffffffffff1614611de1576040517f08c379a00000000000000000000000000000000000000000000000000000000081526004018080602001828103825260208152602001807f4f776e61626c653a2063616c6c6572206973206e6f7420746865206f776e657281525060200191505060405180910390fd5b600280541415611e59576040517f08c379a000000000000000000000000000000000000000000000000000000000815260040180806020018281038252601f8152602001807f5265656e7472616e637947756172643a207265656e7472616e742063616c6c0081525060200191505060405180910390fd5b60028081905550600047905060003373ffffffffffffffffffffffffffffffffffffffff168260405180600001905060006040518083038185875af1925050503d8060008114611ec5576040519150601f19603f3d011682016040523d82523d6000602084013e611eca565b606091505b5050905080611f41576040517f08c379a00000000000000000000000000000000000000000000000000000000081526004018080602001828103825260148152602001807f4661696c656420746f2073656e6420457468657200000000000000000000000081525060200191505060405180910390fd5b50506001600281905550565b7ff86195cf7690c55907b2b611ebb7343a6f649bff128701cc542f0569e2c549da60001b81565b60086020528060005260406000206000915090508060000160009054906101000a900473ffffffffffffffffffffffffffffffffffffffff16908060010154908060020160009054906101000a900460ff16908060020160019054906101000a900460ff16908060030154908060040160009054906101000a900460ff16908060040160019054906101000a900473ffffffffffffffffffffffffffffffffffffffff16905087565b6120256137a4565b73ffffffffffffffffffffffffffffffffffffffff16612043612bac565b73ffffffffffffffffffffffffffffffffffffffff16146120cc576040517f08c379a00000000000000000000000000000000000000000000000000000000081526004018080602001828103825260208152602001807f4f776e61626c653a2063616c6c6572206973206e6f7420746865206f776e657281525060200191505060405180910390fd5b600073ffffffffffffffffffffffffffffffffffffffff16600160009054906101000a900473ffffffffffffffffffffffffffffffffffffffff1673ffffffffffffffffffffffffffffffffffffffff167f8be0079c531659141344cd1fd0a4f28419497f9722a3daafe3b4186f6b6457e060405160405180910390a36000600160006101000a81548173ffffffffffffffffffffffffffffffffffffffff021916908373ffffffffffffffffffffffffffffffffffffffff160217905550565b6121956137a4565b73ffffffffffffffffffffffffffffffffffffffff166121b3612bac565b73ffffffffffffffffffffffffffffffffffffffff161461223c576040517f08c379a00000000000000000000000000000000000000000000000000000000081526004018080602001828103825260208152602001807f4f776e61626c653a2063616c6c6572206973206e6f7420746865206f776e657281525060200191505060405180910390fd5b6002805414156122b4576040517f08c379a000000000000000000000000000000000000000000000000000000000815260040180806020018281038252601f8152602001807f5265656e7472616e637947756172643a207265656e7472616e742063616c6c0081525060200191505060405180910390fd5b600280819055506122fa338273b0897686c545045afc77cf20ec7a532e3120e0f173ffffffffffffffffffffffffffffffffffffffff166137ac9092919063ffffffff16565b600160028190555050565b60028054141561237d576040517f08c379a000000000000000000000000000000000000000000000000000000000815260040180806020018281038252601f8152602001807f5265656e7472616e637947756172643a207265656e7472616e742063616c6c0081525060200191505060405180910390fd5b6002808190555061238c6137a4565b73ffffffffffffffffffffffffffffffffffffffff166123aa612bac565b73ffffffffffffffffffffffffffffffffffffffff1614612433576040517f08c379a00000000000000000000000000000000000000000000000000000000081526004018080602001828103825260208152602001807f4f776e61626c653a2063616c6c6572206973206e6f7420746865206f776e657281525060200191505060405180910390fd5b8060ff16600960ff16116124af576040517f08c379a000000000000000000000000000000000000000000000000000000000815260040180806020018281038252600f8152602001807f496e76616c696420736c6f74204944000000000000000000000000000000000081525060200191505060405180910390fd5b60011515600860008360ff1660ff16815260200190815260200160002060020160019054906101000a900460ff16151514612552576040517f08c379a00000000000000000000000000000000000000000000000000000000081526004018080602001828103825260118152602001807f54686520736c6f7420697320656d70747900000000000000000000000000000081525060200191505060405180910390fd5b60001515600860008360ff1660ff16815260200190815260200160002060040160009054906101000a900460ff161515146125d8576040517f08c379a000000000000000000000000000000000000000000000000000000000815260040180806020018281038252602f8152602001806140c4602f913960400191505060405180910390fd5b600860008260ff1660ff16815260200190815260200160002060020160009054906101000a900460ff161561274d57600860008260ff1660ff16815260200190815260200160002060000160009054906101000a900473ffffffffffffffffffffffffffffffffffffffff1673ffffffffffffffffffffffffffffffffffffffff1663f242432a3033600860008660ff1660ff1681526020019081526020016000206001015460016040518563ffffffff1660e01b8152600401808573ffffffffffffffffffffffffffffffffffffffff1681526020018473ffffffffffffffffffffffffffffffffffffffff16815260200183815260200182815260200180602001828103825260048152602001807f307830300000000000000000000000000000000000000000000000000000000081525060200195505050505050600060405180830381600087803b15801561273057600080fd5b505af1158015612744573d6000803e3d6000fd5b5050505061284d565b600860008260ff1660ff16815260200190815260200160002060000160009054906101000a900473ffffffffffffffffffffffffffffffffffffffff1673ffffffffffffffffffffffffffffffffffffffff166342842e0e3033600860008660ff1660ff168152602001908152602001600020600101546040518463ffffffff1660e01b8152600401808473ffffffffffffffffffffffffffffffffffffffff1681526020018373ffffffffffffffffffffffffffffffffffffffff1681526020018281526020019350505050600060405180830381600087803b15801561283457600080fd5b505af1158015612848573d6000803e3d6000fd5b505050505b6000600860008360ff1660ff16815260200190815260200160002060020160016101000a81548160ff0219169083151502179055506000600860008360ff1660ff16815260200190815260200160002060000160006101000a81548173ffffffffffffffffffffffffffffffffffffffff021916908373ffffffffffffffffffffffffffffffffffffffff1602179055506000600860008360ff1660ff168152602001908152602001600020600101819055506000600860008360ff1660ff16815260200190815260200160002060020160006101000a81548160ff0219169083151502179055506000600860008360ff1660ff168152602001908152602001600020600301819055506000600860008360ff1660ff16815260200190815260200160002060040160006101000a81548160ff0219169083151502179055507fa2733f5b2e51d6ca7ef5c0c4c6ac320492a86a684ca9545a832987acb27d4e4481604051808260ff16815260200191505060405180910390a1600160028190555050565b6129d96137a4565b73ffffffffffffffffffffffffffffffffffffffff166129f7612bac565b73ffffffffffffffffffffffffffffffffffffffff1614612a80576040517f08c379a00000000000000000000000000000000000000000000000000000000081526004018080602001828103825260208152602001807f4f776e61626c653a2063616c6c6572206973206e6f7420746865206f776e657281525060200191505060405180910390fd5b600280541415612af8576040517f08c379a000000000000000000000000000000000000000000000000000000000815260040180806020018281038252601f8152602001807f5265656e7472616e637947756172643a207265656e7472616e742063616c6c0081525060200191505060405180910390fd5b600280819055506007543414612b76576040517f08c379a00000000000000000000000000000000000000000000000000000000081526004018080602001828103825260178152602001807f5061796d656e74206973206e6f7420617474616368656400000000000000000081525060200191505060405180910390fd5b612ba181337f307830300000000000000000000000000000000000000000000000000000000061384e565b600160028190555050565b6000600160009054906101000a900473ffffffffffffffffffffffffffffffffffffffff16905090565b7f000000000000000000000000000000000000000000000000000000000000000073ffffffffffffffffffffffffffffffffffffffff163373ffffffffffffffffffffffffffffffffffffffff1614612c97576040517f08c379a000000000000000000000000000000000000000000000000000000000815260040180806020018281038252601f8152602001807f4f6e6c7920565246436f6f7264696e61746f722063616e2066756c66696c6c0081525060200191505060405180910390fd5b612ca18282613ad2565b5050565b60068054600181600116156101000203166002900480601f016020809104026020016040519081016040528092919081815260200182805460018160011615610100020316600290048015612d3b5780601f10612d1057610100808354040283529160200191612d3b565b820191906000526020600020905b815481529060010190602001808311612d1e57829003601f168201915b505050505081565b600a5481565b600063bc197c8160e01b905095945050505050565b655af3107a400081565b600280541415612de0576040517f08c379a000000000000000000000000000000000000000000000000000000000815260040180806020018281038252601f8152602001807f5265656e7472616e637947756172643a207265656e7472616e742063616c6c0081525060200191505060405180910390fd5b60028081905550612def6137a4565b73ffffffffffffffffffffffffffffffffffffffff16612e0d612bac565b73ffffffffffffffffffffffffffffffffffffffff1614612e96576040517f08c379a00000000000000000000000000000000000000000000000000000000081526004018080602001828103825260208152602001807f4f776e61626c653a2063616c6c6572206973206e6f7420746865206f776e657281525060200191505060405180910390fd5b8460ff16600960ff1611612f12576040517f08c379a000000000000000000000000000000000000000000000000000000000815260040180806020018281038252600f8152602001807f496e76616c696420736c6f74204944000000000000000000000000000000000081525060200191505060405180910390fd5b836103e810158015612f25575060018410155b612f7a576040517f08c379a00000000000000000000000000000000000000000000000000000000081526004018080602001828103825260278152602001806140776027913960400191505060405180910390fd5b60001515600860008760ff1660ff16815260200190815260200160002060020160019054906101000a900460ff1615151461301d576040517f08c379a00000000000000000000000000000000000000000000000000000000081526004018080602001828103825260148152602001807f54686520736c6f74206973206f6363757069656400000000000000000000000081525060200191505060405180910390fd5b8015613111578273ffffffffffffffffffffffffffffffffffffffff1663f242432a33308560016040518563ffffffff1660e01b8152600401808573ffffffffffffffffffffffffffffffffffffffff1681526020018473ffffffffffffffffffffffffffffffffffffffff16815260200183815260200182815260200180602001828103825260048152602001807f307830300000000000000000000000000000000000000000000000000000000081525060200195505050505050600060405180830381600087803b1580156130f457600080fd5b505af1158015613108573d6000803e3d6000fd5b505050506131b9565b8273ffffffffffffffffffffffffffffffffffffffff166342842e0e3330856040518463ffffffff1660e01b8152600401808473ffffffffffffffffffffffffffffffffffffffff1681526020018373ffffffffffffffffffffffffffffffffffffffff1681526020018281526020019350505050600060405180830381600087803b1580156131a057600080fd5b505af11580156131b4573d6000803e3d6000fd5b505050505b6001600860008760ff1660ff16815260200190815260200160002060020160016101000a81548160ff02191690831515021790555082600860008760ff1660ff16815260200190815260200160002060000160006101000a81548173ffffffffffffffffffffffffffffffffffffffff021916908373ffffffffffffffffffffffffffffffffffffffff16021790555081600860008760ff1660ff1681526020019081526020016000206001018190555080600860008760ff1660ff16815260200190815260200160002060020160006101000a81548160ff02191690831515021790555083600860008760ff1660ff168152602001908152602001600020600301819055506000600860008760ff1660ff16815260200190815260200160002060040160006101000a81548160ff0219169083151502179055507f2cefa006d1dff9a60df84bf57639a8704c83b4555197cccecdb18686ea1b5d438584848488604051808660ff1681526020018573ffffffffffffffffffffffffffffffffffffffff16815260200184815260200183151581526020018281526020019550505050505060405180910390a160016002819055505050505050565b73b0897686c545045afc77cf20ec7a532e3120e0f181565b600063f23a6e6160e01b905095945050505050565b6133aa6137a4565b73ffffffffffffffffffffffffffffffffffffffff166133c8612bac565b73ffffffffffffffffffffffffffffffffffffffff1614613451576040517f08c379a00000000000000000000000000000000000000000000000000000000081526004018080602001828103825260208152602001807f4f776e61626c653a2063616c6c6572206973206e6f7420746865206f776e657281525060200191505060405180910390fd5b600073ffffffffffffffffffffffffffffffffffffffff168173ffffffffffffffffffffffffffffffffffffffff1614156134d7576040517f08c379a000000000000000000000000000000000000000000000000000000000815260040180806020018281038252602681526020018061409e6026913960400191505060405180910390fd5b8073ffffffffffffffffffffffffffffffffffffffff16600160009054906101000a900473ffffffffffffffffffffffffffffffffffffffff1673ffffffffffffffffffffffffffffffffffffffff167f8be0079c531659141344cd1fd0a4f28419497f9722a3daafe3b4186f6b6457e060405160405180910390a380600160006101000a81548173ffffffffffffffffffffffffffffffffffffffff021916908373ffffffffffffffffffffffffffffffffffffffff16021790555050565b600981565b60006135a782613b1a565b9050919050565b60007f000000000000000000000000000000000000000000000000000000000000000073ffffffffffffffffffffffffffffffffffffffff16634000aea07f00000000000000000000000000000000000000000000000000000000000000008486600060405160200180838152602001828152602001925050506040516020818303038152906040526040518463ffffffff1660e01b8152600401808473ffffffffffffffffffffffffffffffffffffffff16815260200183815260200180602001828103825283818151815260200191508051906020019080838360005b838110156136a857808201518184015260208101905061368d565b50505050905090810190601f1680156136d55780820380516001836020036101000a031916815260200191505b50945050505050602060405180830381600087803b1580156136f657600080fd5b505af115801561370a573d6000803e3d6000fd5b505050506040513d602081101561372057600080fd5b81019080805190602001909291905050505060006137538460003060008089815260200190815260200160002054613b38565b905061377b600160008087815260200190815260200160002054613b9c90919063ffffffff16565b6000808681526020019081526020016000208190555061379b8482613c24565b91505092915050565b600033905090565b6138498363a9059cbb60e01b8484604051602401808373ffffffffffffffffffffffffffffffffffffffff16815260200182815260200192505050604051602081830303815290604052907bffffffffffffffffffffffffffffffffffffffffffffffffffffffff19166020820180517bffffffffffffffffffffffffffffffffffffffffffffffffffffffff8381831617835250505050613c5d565b505050565b600061385984613b1a565b90506000806000805b600960ff168160ff161015613958576000600860008360ff1660ff16815260200190815260200160002090508060020160019054906101000a900460ff1680156138c15750600015158160040160009054906101000a900460ff161515145b1561394a5780600301548501945085851180156138dc575083155b156139495760018160040160006101000a81548160ff021916908315150217905550878160040160016101000a81548173ffffffffffffffffffffffffffffffffffffffff021916908373ffffffffffffffffffffffffffffffffffffffff160217905550600193508192505b5b508080600101915050613862565b508460096000600a548152602001908152602001600020600001819055508560096000600a54815260200190815260200160002060010160006101000a81548173ffffffffffffffffffffffffffffffffffffffff021916908373ffffffffffffffffffffffffffffffffffffffff1602179055508160096000600a54815260200190815260200160002060010160146101000a81548160ff0219169083151502179055508060096000600a54815260200190815260200160002060010160156101000a81548160ff021916908360ff1602179055508360096000600a548152602001908152602001600020600201819055508260096000600a548152602001908152602001600020600301819055506001600a600082825401925050819055508573ffffffffffffffffffffffffffffffffffffffff167f919bf6a1d8c1bc2516da67d282dc7b01dd71a5420dd5a6c63d8d61bcd99f9c788360405180821515815260200191505060405180910390a250505050505050565b60006004600084815260200190815260200160002060009054906101000a900473ffffffffffffffffffffffffffffffffffffffff169050613b1582828561384e565b505050565b6000613b3161271083613d4c90919063ffffffff16565b9050919050565b600084848484604051602001808581526020018481526020018373ffffffffffffffffffffffffffffffffffffffff1681526020018281526020019450505050506040516020818303038152906040528051906020012060001c9050949350505050565b600080828401905083811015613c1a576040517f08c379a000000000000000000000000000000000000000000000000000000000815260040180806020018281038252601b8152602001807f536166654d6174683a206164646974696f6e206f766572666c6f77000000000081525060200191505060405180910390fd5b8091505092915050565b60008282604051602001808381526020018281526020019250505060405160208183030381529060405280519060200120905092915050565b6060613cbf826040518060400160405280602081526020017f5361666545524332303a206c6f772d6c6576656c2063616c6c206661696c65648152508573ffffffffffffffffffffffffffffffffffffffff16613dd69092919063ffffffff16565b9050600081511115613d4757808060200190516020811015613ce057600080fd5b8101908080519060200190929190505050613d46576040517f08c379a000000000000000000000000000000000000000000000000000000000815260040180806020018281038252602a815260200180614119602a913960400191505060405180910390fd5b5b505050565b600080821415613dc4576040517f08c379a00000000000000000000000000000000000000000000000000000000081526004018080602001828103825260188152602001807f536166654d6174683a206d6f64756c6f206279207a65726f000000000000000081525060200191505060405180910390fd5b818381613dcd57fe5b06905092915050565b6060613de58484600085613dee565b90509392505050565b606082471015613e49576040517f08c379a00000000000000000000000000000000000000000000000000000000081526004018080602001828103825260268152602001806140f36026913960400191505060405180910390fd5b613e5285613f97565b613ec4576040517f08c379a000000000000000000000000000000000000000000000000000000000815260040180806020018281038252601d8152602001807f416464726573733a2063616c6c20746f206e6f6e2d636f6e747261637400000081525060200191505060405180910390fd5b600060608673ffffffffffffffffffffffffffffffffffffffff1685876040518082805190602001908083835b60208310613f145780518252602082019150602081019050602083039250613ef1565b6001836020036101000a03801982511681845116808217855250505050505090500191505060006040518083038185875af1925050503d8060008114613f76576040519150601f19603f3d011682016040523d82523d6000602084013e613f7b565b606091505b5091509150613f8b828286613faa565b92505050949350505050565b600080823b905060008111915050919050565b60608315613fba5782905061406f565b600083511115613fcd5782518084602001fd5b816040517f08c379a00000000000000000000000000000000000000000000000000000000081526004018080602001828103825283818151815260200191508051906020019080838360005b83811015614034578082015181840152602081019050614019565b50505050905090810190601f1680156140615780820380516001836020036101000a031916815260200191505b509250505060405180910390fd5b939250505056fe52616e646f6d6e6573732076616c7565206d757374206265206265747765656e20302d313030304f776e61626c653a206e6577206f776e657220697320746865207a65726f2061646472657373546865206173736574206c6f636b6564206973206265696e6720636c61696d6564206279207468652077696e6e6572416464726573733a20696e73756666696369656e742062616c616e636520666f722063616c6c5361666545524332303a204552433230206f7065726174696f6e20646964206e6f742073756363656564a26469706673582212203a01525adf055f9871132d0e19c3ed10f7d2ecc31d95461f5a1eca5ca5c4bd7364736f6c634300060c0033a264697066735822122037e2533288310489f974b890cddbe194946865c4db8443e13af0ddea673df89364736f6c634300060c0033",
  "devdoc": {
    "kind": "dev",
    "methods": {},
    "title": "Factory for creating new luckbox contract.",
    "version": 1
  },
  "userdoc": {
    "kind": "user",
    "methods": {},
    "version": 1
  },
  "storageLayout": {
    "storage": [
      {
        "astId": 5552,
        "contract": "contracts/Factory.sol:Factory",
        "label": "_status",
        "offset": 0,
        "slot": "0",
        "type": "t_uint256"
      },
      {
        "astId": 5687,
        "contract": "contracts/Factory.sol:Factory",
        "label": "boxes",
        "offset": 0,
        "slot": "1",
        "type": "t_array(t_struct(Box)5684_storage)dyn_storage"
      },
      {
        "astId": 5689,
        "contract": "contracts/Factory.sol:Factory",
        "label": "totalBoxes",
        "offset": 0,
        "slot": "2",
        "type": "t_uint256"
      }
    ],
    "types": {
      "t_address": {
        "encoding": "inplace",
        "label": "address",
        "numberOfBytes": "20"
      },
      "t_array(t_struct(Box)5684_storage)dyn_storage": {
        "base": "t_struct(Box)5684_storage",
        "encoding": "dynamic_array",
        "label": "struct Factory.Box[]",
        "numberOfBytes": "32"
      },
      "t_string_storage": {
        "encoding": "bytes",
        "label": "string",
        "numberOfBytes": "32"
      },
      "t_struct(Box)5684_storage": {
        "encoding": "inplace",
        "label": "struct Factory.Box",
        "members": [
          {
            "astId": 5677,
            "contract": "contracts/Factory.sol:Factory",
            "label": "name",
            "offset": 0,
            "slot": "0",
            "type": "t_string_storage"
          },
          {
            "astId": 5679,
            "contract": "contracts/Factory.sol:Factory",
            "label": "symbol",
            "offset": 0,
            "slot": "1",
            "type": "t_string_storage"
          },
          {
            "astId": 5681,
            "contract": "contracts/Factory.sol:Factory",
            "label": "owner",
            "offset": 0,
            "slot": "2",
            "type": "t_address"
          },
          {
            "astId": 5683,
            "contract": "contracts/Factory.sol:Factory",
            "label": "contractAddress",
            "offset": 0,
            "slot": "3",
            "type": "t_address"
          }
        ],
        "numberOfBytes": "128"
      },
      "t_uint256": {
        "encoding": "inplace",
        "label": "uint256",
        "numberOfBytes": "32"
      }
    }
  }
}